:10000000D0C00000EEC00000ECC0000079C20000CB
:1000100078C300006EC5000072C40000E2C000009A
:10002000E0C00000DEC00000DCC00000DAC000005C
:10003000D8C00000D6C00000D4C00000D2C000006C
:10004000D0C00000CEC00000CCC00000CAC000007C
:10005000C8C000005BC70000C4C00000C2C00000F0
:10006000C0C000003EC60000BCC00000BAC0000016
:10007000B8C00000B6C00000B4C00000B2C00000AC
:10008000B0C00000AEC00000ACC00000AAC00000BC
:10009000A8C00000A6C00000A4C00000A2C00000CC
:1000A000A0C000009EC0000006C200009AC0000070
:1000B00098C0000096C0000094C0000072C100000B
:1000C00090C000008EC000008CC000008AC00000FC
:1000D00088C0000086C0000084C0000082C000000C
:1000E00080C0000007634236B79BD8A71A3968560C
:1000F00018AEBAAB558C1D3CB7CC5763BD6DEDFD4A
:10010000753EF6177231BF000000803F0800000006
:10011000BE922449123EABAAAA2ABECDCCCC4C3EFC
:1001200000000080BEABAAAAAA3E00000000BF00EB
:100130000000803F0000000000084178D3BB4387E7
:10014000D1133D190E3CC3BD4282AD2B3E68EC82FB
:1001500076BED98FE1A93E4C80EFFFBE01C4FF7F80
:100160003F00000000004E414E494E495459494E4F
:1001700046CDCCCC3D0AD7233C17B7D13877CC2B12
:10018000329595E6241FB14F0A000020410000C8B7
:100190004200401C4620BCBE4CCA1B0E5AAEC59D38
:1001A000740011241FBECFEFD1E2DEBFCDBF00E04F
:1001B0000CBF12E0A0E0B2E0EAE2F3E200E00BBF25
:1001C00002C007900D92A431B107D9F723E0A4E152
:1001D000B2E001C01D92A23CB207E1F78ED60C94AA
:1001E00093110ECFCF93DF93EC0183E090E00E9458
:1001F0005B0B892BD1F781E090E00E945B0BC23052
:10020000D10569F0C330D10591F02197C1F46AE1BD
:1002100070E082E590E00E94A10BEC0112C06CE15D
:1002200070E082E590E00E94A10BEC010AC06EE153
:1002300070E082E590E00E94A10BEC0102C0C0E0FA
:10024000D9E180E090E00E945B0BBE01DD0F880BDE
:10025000990B0E94F90C20E030E040E85DE30E9439
:10026000090EDF91CF910895CF92DF92EF92FF9226
:1002700081E090E0B7DF6B017C0120E030E0A90174
:100280000E945A0C88238CF420E030E044EB53E4C5
:10029000C701B6010E94F60B6093240270932502F9
:1002A000809326029093270223C020E030E044EBA5
:1002B00053E4C701B6010E94050E88234CF4C09296
:1002C0002402D0922502E0922602F092270210C06A
:1002D00020E030E044EB53E4C701B6010E94F50B87
:1002E0006093240270932502809326029093270244
:1002F000C0902402D0902502E0902602F0902702C0
:1003000020E030E0A901C701B6010E945A0C882301
:100310008CF420E030E044E353E4C701B6010E94CE
:10032000F60B60932402709325028093260290932B
:1003300027021AC020E030E044E353E4C701B601CD
:100340000E94050E882384F020E030E044EB53E463
:10035000C701B6010E94F50B609324027093250239
:1003600080932602909327026091240270912502C7
:100370008091260290912702FF90EF90DF90CF901E
:1003800008955B9A8DB38C638DBBE9E6F0E08081C4
:10039000806F8083EAE6F0E080818F6080837894CC
:1003A00008951F920F920FB60F9211240BB60F9261
:1003B000CF92DF92EF92FF922F933F934F935F93F1
:1003C0006F937F938F939F93AF93BF93EF93FF931D
:1003D000C2D50E94F70C60937803709379038093E1
:1003E0007A0390937B0360918D0270918E028091CD
:1003F0008F0290919002C0907803D0907903E090A2
:100400007A03F0907B0320E030E040E251E40E9468
:10041000F60BA70196010E945A0C1816CCF024DFA7
:100420006093B6027093B7028093B8029093B902BA
:100430008091780390917903A0917A03B0917B0326
:1004400080938D0290938E02A0938F02B0939002BE
:1004500081E090E0DFD5909399008093980082E04E
:1004600090E0D8D5909389008093880083E090E055
:10047000D1D590938D0080938C0084E090E0CAD514
:1004800090938B0080938A00FF91EF91BF91AF9181
:100490009F918F917F916F915F914F913F912F919C
:1004A000FF90EF90DF90CF900F900BBE0F900FBE9C
:1004B0000F901F9018951F920F920FB60F92112454
:1004C0008F939F93AF93BF938091140290911502E5
:1004D000A0911602B09117020196A11DB11D809343
:1004E000140290931502A0931602B0931702BF91C5
:1004F000AF919F918F910F900FBE0F901F90189505
:100500001F920F920FB60F9211240BB60F924F92BB
:100510005F926F927F92AF92BF92CF92DF92EF92F3
:10052000FF920F931F932F933F934F935F936F937C
:100530007F938F939F93AF93BF93CF93DF93EF936B
:10054000FF936091A4007091A50080E090E00E946C
:10055000F70C6093990270939A0280939B02909398
:100560009C028091140290911502A0911602B09104
:10057000170290934E0280934D0220914D023091CC
:100580004E02809116039091170328173907D9F46A
:100590006091990270919A0280919B0290919C02C5
:1005A0002091750230917602409177025091780245
:1005B0000E94F50B6093AA027093AB028093AC0289
:1005C0009093AD0247C0E8EAF0E060817181C0908D
:1005D0007502D0907602E0907702F0907802409019
:1005E000990250909A0260909B0270909C02C09178
:1005F0004D02D0914E02A0901603B09017030081D7
:10060000118180E090E00E94F70CA70196010E9402
:10061000F50BA30192010E94F60B6B017C01CA1934
:10062000DB09C09FB001C19F700DD09F700D1124D8
:1006300080E090E00E94F70C9B01AC01C701B6017D
:100640000E94F60B6093AA027093AB028093AC02F7
:100650009093AD028091990290919A02A0919B0291
:10066000B0919C028093750290937602A0937702DA
:10067000B093780280914D0290914E0290931703AF
:10068000809316036091AA027091AB028091AC0234
:100690009091AD0220E030E84BE154E40E94090E55
:1006A0009B01AC0160E074E284E797E40E945E0C79
:1006B00060935003709351038093520390935303BC
:1006C000FF91EF91DF91CF91BF91AF919F918F916A
:1006D0007F916F915F914F913F912F911F910F915A
:1006E000FF90EF90DF90CF90BF90AF907F906F9092
:1006F0005F904F900F900BBE0F900FBE0F901F900A
:1007000018951F920F920FB60F9211240BB60F92ED
:100710004F925F926F927F92AF92BF92CF92DF9291
:10072000EF92FF920F931F932F933F934F935F93FB
:100730006F937F938F939F93AF93BF93CF93DF93E9
:10074000EF93FF936091A4007091A50080E090E08A
:100750000E94F70C6093AA037093AB038093AC03E1
:100760009093AD038091140290911502A09116020E
:10077000B09117029093920280939102209191027E
:10078000309192028091A8039091A903281739070C
:10079000D9F46091AA037091AB038091AC0390915E
:1007A000AD032091B6033091B7034091B803509147
:1007B000B9030E94F50B60939502709396028093A3
:1007C00097029093980244C0E8EAF0E0608171815A
:1007D000C090B603D090B703E090B803F090B9038F
:1007E0004090AA035090AB036090AC037090AD03AF
:1007F000C0919102D0919202A090A803B090A90359
:100800000081118180E090E00E94F70CA701960121
:10081000ECD7A3019201EAD76B017C01CA19DB096D
:10082000C09FB001C19F700DD09F700D112480E05A
:1008300090E00E94F70C9B01AC01C701B601D6D72E
:10084000609395027093960280939702909398021A
:100850008091AA039091AB03A091AC03B091AD033A
:100860008093B6039093B703A093B803B093B903F2
:1008700080919102909192029093A9038093A80392
:1008800060919502709196028091970290919802E2
:1008900020E030E84BE154E40E94090E9B01AC01DA
:1008A00060E074E284E797E40E945E0C6093540376
:1008B000709355038093560390935703FF91EF91E4
:1008C000DF91CF91BF91AF919F918F917F916F9168
:1008D0005F914F913F912F911F910F91FF90EF905A
:1008E000DF90CF90BF90AF907F906F905F904F90D0
:1008F0000F900BBE0F900FBE0F901F9018951F9278
:100900000F920FB60F9211240BB60F924F925F9277
:100910006F927F92AF92BF92CF92DF92EF92FF924F
:100920000F931F932F933F934F935F936F937F93F7
:100930008F939F93AF93BF93CF93DF93EF93FF93E7
:100940006091A4007091A50080E090E00E94F70CF7
:100950006093B2037093B3038093B4039093B50391
:100960008091140290911502A0911602B091170285
:1009700090939E0280939D0220919D0230919E0251
:100980008091A0029091A10228173907D1F46091BB
:10099000B2037091B3038091B4039091B503209199
:1009A00018033091190340911A0350911B031DD76E
:1009B0006093AE027093AF028093B0029093B10245
:1009C00042C0E8EAF0E060817181C0901803D090E5
:1009D0001903E0901A03F0901B034090B20350906B
:1009E000B3036090B4037090B503C0919D02D091A1
:1009F0009E02A090A002B090A1020081118180E02F
:100A000090E0F5D7A7019601F0D6A3019201EED6AA
:100A10006B017C01CA19DB09C09FB001C19F700D39
:100A2000D09F700D112480E090E0E1D79B01AC01D4
:100A3000C701B601DBD66093AE027093AF0280931C
:100A4000B0029093B1028091B2039091B303A09150
:100A5000B403B091B5038093180390931903A09346
:100A60001A03B0931B0380919D0290919E02909374
:100A7000A1028093A0026091AE027091AF028091BA
:100A8000B0029091B10220E030E84BE154E40E94C2
:100A9000090E9B01AC0160E074E284E797E40ED795
:100AA000609358037093590380935A0390935B03A8
:100AB000FF91EF91DF91CF91BF91AF919F918F9176
:100AC0007F916F915F914F913F912F911F910F9166
:100AD000FF90EF90DF90CF90BF90AF907F906F909E
:100AE0005F904F900F900BBE0F900FBE0F901F9016
:100AF00018951F920F920FB60F9211240BB60F92FA
:100B00004F925F926F927F92AF92BF92CF92DF929D
:100B1000EF92FF920F931F932F933F934F935F9307
:100B20006F937F938F939F93AF93BF93CF93DF93F5
:100B3000EF93FF936091A4007091A50080E090E096
:100B400056D76093A2027093A3028093A40290935D
:100B5000A5028091140290911502A0911602B09105
:100B60001702909394028093930220919302309104
:100B70009402809132039091330328173907D1F4FE
:100B80006091A2027091A3028091A4029091A502AB
:100B90002091BA023091BB024091BC025091BD023B
:100BA00024D66093AE037093AF038093B003909309
:100BB000B10342C0E8EAF0E060817181C090BA02FE
:100BC000D090BB02E090BC02F090BD024090A20227
:100BD0005090A3026090A4027090A502C09193026D
:100BE000D0919402A0903203B09033030081118120
:100BF00080E090E0FCD6A7019601F7D5A301920111
:100C0000F5D56B017C01CA19DB09C09FB001C19FFA
:100C1000700DD09F700D112480E090E0E8D69B010C
:100C2000AC01C701B601E2D56093AE037093AF0388
:100C30008093B0039093B1038091A2029091A3029C
:100C4000A091A402B091A5028093BA029093BB0236
:100C5000A093BC02B093BD02809193029091940244
:100C600090933303809332036091AE037091AF038E
:100C70008091B0039091B10320E030E84BE154E45F
:100C8000C8D79B01AC0160E074E284E797E416D614
:100C900060935C0370935D0380935E0390935F03A6
:100CA000FF91EF91DF91CF91BF91AF919F918F9184
:100CB0007F916F915F914F913F912F911F910F9174
:100CC000FF90EF90DF90CF90BF90AF907F906F90AC
:100CD0005F904F900F900BBE0F900FBE0F901F9024
:100CE00018951F920F920FB60F9211240BB60F9208
:100CF000CF92DF92EF92FF920F931F932F933F9328
:100D00004F935F936F937F938F939F93AF93BF9313
:100D1000CF93DF93EF93FF938091C6008536A1F0C8
:100D2000E0917302F0917402EA52FD4F80832091AA
:100D30007302309174022F5F3F4F309374022093FF
:100D400073025ED30ED4BEC0E0917302F0917402C0
:100D5000EB52FD4F808180939F0252D380E092E05E
:100D600057D3E0917302F0917402EB52FD4F108261
:100D700080917302909174020197181619068CF4F1
:100D800006ED12E0C0E0D0E0F80181918F0138D388
:100D9000219680917302909174020197C817D90728
:100DA0009CF380E092E034D386ED92E00E94011043
:100DB0006B017C01DBD3D5D380919F028133C1F1DC
:100DC000823309F43DC0803309F04EC020E030E0AA
:100DD000A901C701B6016ED588233CF480E58BB923
:100DE000F7FAF094F7F8F09402C080EA8BB9E9E7DB
:100DF000F2E0C082D182E282F382C482D582E682AE
:100E0000F78220E030E0A901C701B60153D5811176
:100E100030C0E9E7F2E080E090E0AAE7B4EC80833C
:100E20009183A283B38384839583A683B78321C0F0
:100E300061E070E080E090E00CD393D392D319C0CE
:100E4000C092B602D092B702E092B802F092B90214
:100E50006091B6027091B7028091B8029091B90288
:100E600085D37FD37ED305C082E092E0D1D279D3FF
:100E700078D3809173029091740280917302909163
:100E800074029923B4F0E0917302F0917402EA5273
:100E9000FD4F10828091730290917402019790939C
:100EA000740280937302809173029091740299236B
:100EB00054F780917302909174020196909374029A
:100EC00080937302FF91EF91DF91CF91BF91AF912A
:100ED0009F918F917F916F915F914F913F912F9152
:100EE0001F910F91FF90EF90DF90CF900F900BBE6E
:100EF0000F900FBE0F901F9018955FD287E092E081
:100F000087D22FD331D03DDA11B8FFCF1F920F9285
:100F10000FB60F9211248F939F93AF93BF9380913D
:100F2000BA039091BB03A091BC03B091BD0301969D
:100F3000A11DB11D8093BA039093BB03A093BC0382
:100F4000B093BD03BF91AF919F918F910F900FBE52
:100F50000F901F9018956091BA037091BB03809118
:100F6000BC039091BD030895E0E8F0E080818B6AB6
:100F70008083E1E8F0E080818C608083E0E9F0E04C
:100F800080818B6A8083E1E9F0E080818C608083DE
:100F9000E0E2F1E080818083E1E2F1E080818A603B
:100FA000808392E0909373002FEC37E03093290117
:100FB00020932801E0EAF0E080818083E1EAF0E01C
:100FC00080818C6080839093720084E294EF909390
:100FD000A9008093A8008FEF91E09093A5008093E3
:100FE000A4008FEF81B984B1806E84B96B9AECE76D
:100FF000F3E01482158216821782108611861286FB
:1010000013861486158616861786108A118A128A08
:10101000138A08954F925F926F927F928F929F9260
:10102000AF92BF92CF92DF92EF92FF920F931F93F6
:10103000CF93DF938C018091300390913103892B02
:1010400009F0C2C06091B6027091B7028091B802F7
:101050009091B9029BD12091A4033091A5034091B6
:10106000A6035091A703C2D36093B2027093B30258
:101070008093B4029093B5026091B2027091B30272
:101080008091B4029091B5022091340330913503E0
:101090004091360350913703A8D32FE632E143E065
:1010A0005BE30CD460935302709354028093550217
:1010B000909356026091B6027091B7028091B80287
:1010C0009091B90220E030E0A9019FD518167CF577
:1010D0008091B2029091B302A091B402B091B50296
:1010E000BC01CD0190582DEC3CEC4CE45DE391D576
:1010F000CCE1D3E0688B798B8A8B9B8B688779876F
:101100008A879B876091B2027091B3028091B4028A
:101110009091B5022DEC3CEC4CE45DE37AD56C8704
:101120007D878E879F876C837D838E839F8360916D
:10113000B6027091B7028091B8029091B90220E096
:1011400030E0A901B7D388237CF56091B202709199
:10115000B3028091B4029091B5022DEC3CEC4CE4CA
:101160005DE357D5CCE1D3E0688B798B8A8B9B8B81
:10117000688779878A879B876091B2027091B302F2
:101180008091B4029091B5022DEC3CEC4CE45DE30F
:1011900040D5DC01CB01B0588C839D83AE83BF83E7
:1011A0008C879D87AE87BF878091B2029091B302F2
:1011B000A091B402B091B5028093340390933503AB
:1011C000A0933603B0933703E801CC0FDD1FCC0F9B
:1011D000DD1FFE01E758FD4F60817181828193819F
:1011E000FE01E45EFC4F2081318142815381FED2B9
:1011F000FE01E057FC4F608371838283938360819B
:10120000718182819381FE01E45BFC4F20813181F9
:1012100042815381EAD29E01285C3C4F7901F90159
:1012200060837183828393836081718182819381E2
:101230009E0124583C4F6901F90180809180A28071
:10124000B3802FE632E143E05BE3E3D4A5019401F0
:10125000CDD2F6016083718382839383F70160812D
:10126000718182819381FE01E254FD4F20813181A1
:1012700042815381BAD22FE632E143E05BE31ED3D1
:10128000C15ADD4F688379838A839B83F70160812C
:10129000718182819381F601C080D180E280F380E8
:1012A00088809980AA80BB8020E030E048E454E444
:1012B000B0D42B013C0120E030E040E451E4C70110
:1012C000B601A7D49B01AC01C301B2018FD26B015F
:1012D0007C0120E030E040E450E4C501B40199D441
:1012E0009B01AC01C701B60181D250D3F801EE0FCA
:1012F000FF1FEA59FC4F718360838081918199239C
:101300003CF4F801EE0FFF1FEA59FC4F11821082E6
:10131000F801EE0FFF1FEA59FC4F80819181811582
:1013200094404CF0F801EE0FFF1FEA59FC4F8FEF8D
:1013300093E091838083C801880F991F880F991FBC
:10134000FC01E85CFC4F4081518162817381FC01AA
:10135000E254FD4F4083518362837383000F111F5A
:10136000F801EA59FC4F80819181DF91CF911F9163
:101370000F91FF90EF90DF90CF90BF90AF909F9034
:101380008F907F906F905F904F900895CF92DF92F3
:10139000EF92FF926B017C0120E030E0A9018AD23C
:1013A000882324F4F7FAF094F7F8F094C701B60113
:1013B000FF90EF90DF90CF90089580911802909168
:1013C0001902A0911A02B0911B02892F9A2FAB2FFC
:1013D000BB27A7FDBA958093C50080911802809322
:1013E000C40088E98093C10086E08093C200E6EDE6
:1013F000F2E086EF92E01192E817F907E1F708951D
:10140000E0ECF0E0908195FFFDCF8093C600089559
:10141000EF92FF920F931F93CF93DF938C017C0188
:10142000C0E0D0E005C0F70181917F01E9DF21969E
:10143000F80101900020E9F73197E01BF10BCE177E
:10144000DF0788F3DF91CF911F910F91FF90EF900D
:1014500008952F923F924F925F927F928F929F9228
:10146000AF92BF92CF92DF92EF92FF920F931F93B2
:10147000CF93DF93CDB7DEB7A0970FB6F894DEBF5A
:101480000FBECDBF6B017C0199230CF04CC08DE0E9
:1014900092E0BEDFF094E094D094C094C11CD11CC3
:1014A000E11CF11CC114D104E104F10419F480E33E
:1014B000A7DF3FC08E010F5F1F4F5E0181E2A80EC4
:1014C000B11CF8011192EA15FB05E1F70F2EFFE1BF
:1014D0007F2EF02D0F2EFAE02F2E312C412C512C87
:1014E000F02D88248394912C8C0E9D1E870C911CCA
:1014F000C701B601A201910168D5605DF401608366
:10150000C22ED32EE42EF52E7A94C114D104E10418
:10151000F10439F7F80181918F01811171DF0A150A
:101520001B05C1F706C0672B682B692B09F0C2CFDA
:10153000BECFA0960FB6F894DEBF0FBECDBFDF9131
:10154000CF911F910F91FF90EF90DF90CF90BF90C0
:10155000AF909F908F907F905F904F903F902F9093
:1015600008958DE04DDF8AE04BCF08954F925F9252
:101570006F927F928F929F92AF92BF92CF92DF92A3
:10158000EF92FF920F931F93CF93DF936B017C0138
:1015900020E030E0A9018ED188233CF48DE092E078
:1015A00037DFF7FAF094F7F8F094C701B601EED1FF
:1015B0002B013C014EDFC0E0D0E00AC020E030E06B
:1015C00040E251E4C701B60124D36B017C012196AE
:1015D00020E030E040E85FE3C701B6014CD220E0F4
:1015E00030E0A90167D18111E9CFBE010D2E000CB9
:1015F000880B990BFED19B01AC0160E070E080E2AA
:1016000091E46AD34B015C01C301B201F2D1A5019F
:101610009401FFD2BBD1EDD19B01AC01C701B60152
:10162000E4D06B017C01B2D14B015C0120E030E0E1
:1016300040E85FE3C701B601E8D21816ACF400E059
:1016400010E020E030E040E251E4C701B60136D1BD
:101650006B017C010F5F1F4F20E030E040E85FE34B
:10166000D4D2181674F302C000E010E0C01BD10BF6
:101670008FE092E0CDDE1C161D064CF400E010E079
:1016800080E3BEDE0F5F1F4FC017D107C9F7C5014A
:10169000B401DFDEDF91CF911F910F91FF90EF90AA
:1016A000DF90CF90BF90AF909F908F907F906F9082
:1016B0005F904F900895823091053CF49093BF0362
:1016C0008093BE0380E090E008958091BE039091E6
:1016D000BF030895ECEBF0E08081846A8083808111
:1016E0008823ECF78091B900883041F02091B9004F
:1016F00081E090E0203121F480E0089580E090E0E6
:1017000008958093BB0084E88093BC00ECEBF0E08C
:1017100080818823ECF78091B900883161F0809155
:10172000B900883259F02091B90081E090E020346E
:1017300039F480E0089580E090E0089580E090E042
:101740000895CF92DF92EF92FF920F931F93CF9362
:10175000DF938C017B01BEDFEC01892B31F084E942
:101760008093BC00C0E0D0E036C0C801CADF6C0185
:10177000892B21F084E98093BC002DC0C701C1DF13
:10178000EC01892B29F084E98093BC00E60123C099
:10179000A1DFC8018160B5DF892B21F084E9809346
:1017A000BC0019C084EC8093BC00ECEBF0E08081BD
:1017B0008823ECF7C091BB0084E88093BC00ECEB7D
:1017C000F0E080818823ECF78091BB0094E990934E
:1017D000BC00D0E0D82BCE01DF91CF911F910F91AB
:1017E000FF90EF90DF90CF9008955058BB27AA2725
:1017F0000ED0D1C1C2D130F0C7D120F031F49F3F1B
:1018000011F41EF4B7C10EF4E095E7FB9FC1E92F78
:10181000D3D180F3BA17620773078407950718F0CE
:1018200071F49EF5EBC10EF4E0950B2EBA2FA02DAE
:101830000B01B90190010C01CA01A0011124FF277D
:10184000591B99F0593F50F4503E68F11A16F04078
:10185000A22F232F342F4427585FF3CF4695379577
:101860002795A795F0405395C9F77EF41F16BA0B3C
:10187000620B730B840BBAF09150A1F0FF0FBB1FEA
:10188000661F771F881FC2F70EC0BA0F621F731F33
:10189000841F48F4879577956795B795F7959E3F90
:1018A00008F0B3CF9395880F08F09927EE0F97951E
:1018B0008795089527D108F481E008950CD06BC175
:1018C00063D140F05AD130F021F45F3F19F03EC1AE
:1018D000511195C14FC170D198F39923C9F3552384
:1018E000B1F3951B550BBB27AA2762177307840713
:1018F00038F09F5F5F4F220F331F441FAA1FA9F3C9
:1019000033D00E2E3AF0E0E830D091505040E695BA
:10191000001CCAF729D0FE2F27D0660F771F881F1B
:10192000BB1F261737074807AB07B0E809F0BB0B0A
:10193000802DBF01FF2793585F4F2AF09E3F51052E
:1019400068F004C15CC15F3FECF3983EDCF3869520
:1019500077956795B795F7959F5FC9F7880F911DA4
:101960009695879597F90895E1E0660F771F881F90
:10197000BB1F621773078407BA0720F0621B730B43
:10198000840BBA0BEE1F88F7E095089504D0689495
:10199000B11135C1089518D188F09F5790F0B92F33
:1019A0009927B751A0F0D1F0660F771F881F991FB4
:1019B0001AF0BA95C9F712C0B13081F01FD1B1E069
:1019C00008951CC1672F782F8827B85F39F0B93F79
:1019D000CCF3869577956795B395D9F73EF49095B6
:1019E0008095709561957F4F8F4F9F4F0895E89434
:1019F00009C097FB3EF490958095709561957F4F57
:101A00008F4F9F4F9923A9F0F92F96E9BB27939504
:101A1000F695879577956795B795F111F8CFFAF414
:101A2000BB0F11F460FF1BC06F5F7F4F8F4F9F4F45
:101A300016C0882311F096E911C0772321F09EE8A3
:101A4000872F762F05C0662371F096E8862F70E009
:101A500060E02AF09A95660F771F881FDAF7880FE3
:101A60009695879597F9089588D018F011F08CD045
:101A700038F480C0C4C0E92F9FD0B0F35523C9F318
:101A8000E7FB6217730784079507A8F199F3E92F1D
:101A9000FF2788232AF03197660F771F881FDAF710
:101AA000952F5527442332F091505040220F331F79
:101AB000441FD2F7BB27E91BF50B621B730B840B8A
:101AC000B109C1F222F4620F731F841FB11D319757
:101AD0002AF0660F771F881FBB1FEFCF9150504031
:101AE0005AF041F0882332F0660F771F881F91501B
:101AF0005040C1F7939530C08695779567959F5F65
:101B0000D9F7F8CF990F0008550FAA0BE0E8FEEFC0
:101B100016161706E807F907C0F012161306E407B1
:101B2000F50798F0621B730B840B950B39F40A26AA
:101B300061F0232B242B252B21F408950A2609F488
:101B4000A140A6958FEF811D811D089597F99F678C
:101B500080E870E060E008959F3F31F0915020F4FC
:101B6000879577956795B795880F911D9695879579
:101B700097F908959FEF80EC089500240A941616B3
:101B8000170618060906089500240A94121613066B
:101B9000140605060895092E0394000C11F48823F9
:101BA00052F0BB0F40F4BF2B11F460FF04C06F5F15
:101BB0007F4F8F4F9F4F089557FD9058440F551FEB
:101BC00059F05F3F71F04795880F97FB991F61F0BF
:101BD0009F3F79F087950895121613061406551F36
:101BE000F2CF4695F1DF08C0161617061806991FA2
:101BF000F1CF86957105610508940895E894BB2797
:101C000066277727CB0197F908957CDF08F48FEFDB
:101C100008950BD0C0CFB1DF28F0B6DF18F09523C0
:101C200009F094CFA7CF1124EACFC6DFA0F3959F88
:101C3000D1F3950F50E0551F629FF001729FBB27B3
:101C4000F00DB11D639FAA27F00DB11DAA1F649F5F
:101C50006627B00DA11D661F829F2227B00DA11D12
:101C6000621F739FB00DA11D621F839FA00D611D98
:101C7000221F749F3327A00D611D231F849F600DB9
:101C8000211D822F762F6A2F11249F5750408AF0F2
:101C9000E1F088234AF0EE0FFF1FBB1F661F771F7E
:101CA000881F91505040A9F79E3F510570F04ECFCC
:101CB000A6CF5F3FECF3983EDCF38695779567956A
:101CC000B795F795E7959F5FC1F7FE2B880F911D9C
:101CD0009695879597F90895FA01EE0FFF1F3096B4
:101CE0002105310599F16115710561F48038BFE373
:101CF0009B0749F168949038810561F08038BFEF07
:101D00009B0741F0992342F5FF3FE105310521058D
:101D100011F1E8940894E795D901AA2329F4AB2F8F
:101D2000BE2FF85FD0F310C0FF5F70F4A695E0F708
:101D3000F73950F019F0FF3A38F49F779F930CD0A1
:101D40000F9007FC905808953EF014CF60E070E0CB
:101D500080E89FE308954FE79F775F934F933F930A
:101D60002F939ED02F913F914F915F9152DF05C0ED
:101D700019F40EF0EBCE42CFFDCE26DFC8F3963835
:101D8000C0F707F80F92E8942BE33AEA48EB5FE7D5
:101D90004EDF0F920F920F924DB75EB70F92C0D0E9
:101DA000E4EEF0E016D04F915F91EF91FF91E59551
:101DB000EE1FFF1F49F0FE57E0684427EE0F441F57
:101DC000FA95E1F74195550B32D00F9007FE26C0EA
:101DD0000895DF93CF931F930F93FF92EF92DF92BB
:101DE0007B018C01689405C0DA2EEF011EDFFE0135
:101DF000E894A5912591359145915591AEF3EF0168
:101E000006DDFE019701A801DA9479F7DF90EF90E3
:101E1000FF900F911F91CF91DF9108959B01AC012D
:101E200060E070E080E89FE349CD90CE95CECCDEB7
:101E3000E8F39923D9F3940F511DBBF3915050400F
:101E400094F059F0882332F0660F771F881F915065
:101E50005040C1F79E3F510544F7880F911D96955C
:101E6000879597F908955F3FACF0983E9CF0BB27AB
:101E7000869577956795B79508F4B1609395C1F706
:101E8000BB0F58F711F460FFE8CF6F5F7F4F8F4FA4
:101E90009F4FE3CFB4CE0EF05FCE6CCE689456CE9B
:101EA00093DEC8F39923D1F3C6F3DF93CF931F9347
:101EB0000F93FF92C92FDD2788232AF02197660F01
:101EC000771F881FDAF720E030E040E85FEB9FE300
:101ED000883920F0803E30F021968F7787DCECE067
:101EE000F1E003C083DCE9E3F1E073DF8B01BE01C5
:101EF000EC01FB2E6F5771097595771F880B990BB5
:101F000078DD28E132E741E35FE38FDEAF2D980112
:101F1000AE01FF900F911F91CF91DF9178DC3BCE06
:101F2000FA01DC01AA0FBB1F9B01AC01BF5728F4CB
:101F300022273327442750781FC0B75188F4AB2F8E
:101F40000024469537952795011CA395D2F30020D0
:101F500069F0220F331F441FB395DAF30DD045CC3F
:101F600061307105A0E88A07B94630F49B01AC01E5
:101F70006627772788279078309621F02083318351
:101F8000428353830895A1E21A2EAA1BBB1BFD01B5
:101F90000DC0AA1FBB1FEE1FFF1FA217B307E40748
:101FA000F50720F0A21BB30BE40BF50B661F771FA0
:101FB000881F991F1A9469F7609570958095909580
:101FC0009B01AC01BD01CF010895052E97FB16F4CE
:101FD00000940FD057FD05D0D6DF07FC02D046F4A1
:101FE00008C050954095309521953F4F4F4F5F4F1A
:101FF000089590958095709561957F4F8F4F9F4F75
:1020000008956627772700C08F929F92AF92BF9264
:10201000CF92DF92EF92FF920F931F93CF93DF93B4
:10202000EC016B016115710519F0FB01918380834F
:102030007E01FFEFEF1AFF0A0881802F90E037D171
:10204000892B11F0E701F4CF0D3239F47E0182E0E3
:10205000E80EF11C098111E008C00B3229F47E0161
:1020600092E0E90EF11C098110E0E701219743E0BD
:1020700050E06EE671E0CE0122D1892BB9F42396AF
:1020800045E050E069E671E0CE0119D1892B09F4F1
:102090002596C114D10419F0F601D183C083111122
:1020A000F0C060E070E080E89FE7F4C043E050E0FB
:1020B00066E671E0CE0103D1892B59F4C114D10435
:1020C00009F4E4C0F2E0EF0EF11CF601F182E082C7
:1020D000DDC020E030E0A901C0E0D0E0F70160ED14
:1020E000A62EA00E89E08A1528F1912F9260B92EB4
:1020F000812F887012FF04C0811123C0219621C056
:1021000081112197A5E0B0E0F5D0DC01CB01880F6B
:10211000991FAA1FBB1F9C01AD012A0D311D411D36
:10212000511D283989E93807480789E1580748F0DF
:10213000166006C09EEFA9120AC013FD40C01860C9
:10214000B12E8FEFE81AF80A00811B2DC7CF802F20
:102150008F7D8534A1F580818D3211F4106106C028
:102160008B3221F0319661E070E004C081813296BB
:1021700062E070E080538A3018F0E61BF70B1FC056
:1021800060E070E060389CE079075CF4DB01AA0F46
:10219000BB1FAA0FBB1F6A0F7B1F660F771F680F3D
:1021A000711D3196DF0111978C9180538A3050F365
:1021B00014FF03C0719561957109C60FD71F11FFF8
:1021C00008C0C114D10429F0CF010197F601918311
:1021D0008083CA01B9010BDC212F2370233019F051
:1021E0004B015C0106C04B015C01B7FAB094B7F833
:1021F000B09420E030E0A901C501B4015BDB882385
:1022000009F43CC0D7FF06C0D195C195D10905E8B6
:1022100011E002C00DE911E06801F8E1CF1AD10820
:1022200090E2E92EF12CCE15DF056CF0F801259136
:10223000359145915491C501B401EBDC4B015C0132
:10224000CE19DF09F0CF04501109F594E7940C156D
:102250001D0549F78A2D880F8B2D881F8F3F41F070
:1022600020E030E0A901C501B40124DB811106C0E2
:1022700082E290E09093C1038093C003C501B40152
:1022800009C060E070E080E89FEF04C060E070E0AB
:1022900080EC9FE7DF91CF911F910F91FF90EF901E
:1022A000DF90CF90BF90AF909F908F900895911145
:1022B0001EC0803219F089508550D0F70895FB0177
:1022C000DC014150504088F08D9181341CF08B35F9
:1022D0000CF4805E659161341CF06B350CF4605E2B
:1022E000861B611171F3990B0895881BFCCF992708
:1022F0008827089509D0A59F900DB49F900DA49FA5
:10230000800D911D11240895A29FB001B39FC001BB
:10231000A39F700D811D1124911DB29F700D811D11
:0A2320001124911D0895F894FFCFD9
:10232A0009006369616F00736572766F002D002E74
:04233A00002C000073
:00000001FF
