:1000000071C000008FC000008DC000002BC2000036
:1000100025C3000013C5000019C4000083C0000000
:1000200081C000007FC000007DC000007BC00000D8
:1000300079C0000077C0000075C0000073C00000E8
:1000400071C000006FC000006DC000006BC00000F8
:1000500069C0000018C6000065C0000063C0000051
:1000600061C000005FC000005DC000005BC0000018
:1000700059C0000057C0000055C0000053C0000028
:1000800051C000004FC000004DC000004BC0000038
:1000900049C0000047C0000045C0000043C0000048
:1000A00041C000003FC00000B8C100003BC00000DC
:1000B00039C0000037C0000035C0000024C1000076
:1000C00031C000002FC000002DC000002BC0000078
:1000D00029C0000027C0000025C0000023C0000088
:1000E00021C0000011241FBECFEFD1E2DEBFCDBF83
:1000F00000E00CBF12E0A0E0B2E0E0EEF8E100E0CA
:100100000BBF02C007900D92AA30B107D9F723E0C8
:10011000AAE0B2E001C01D92AF36B207E1F786D582
:100120000C946E0C6DCFEAE7F0E0808187608083ED
:10013000ACE7B0E08C9180648C9380818068808390
:100140008081806480830895CF93DF93EC0183E006
:1001500090E00E947B09892BD1F781E090E00E941A
:100160007B09C230D10569F0C330D10591F02197E8
:10017000C1F46AE170E082E590E00E94C109EC01FF
:1001800012C06CE170E082E590E00E94C109EC01D0
:100190000AC06EE170E082E590E00E94C109EC01C6
:1001A00002C0C0E0D9E180E090E00E947B09BE017E
:1001B000DD0F880B990B0E94190B20E030E040E81E
:1001C0005DE30E94CD0BDF91CF910895CF92DF9236
:1001D000EF92FF9281E090E0B7DF6B017C0120E0BD
:1001E00030E0A9010E947A0A88238CF420E030E0F4
:1001F00044EB53E4C701B6010E94160A60931A0249
:1002000070931B0280931C0290931D0223C020E078
:1002100030E044EB53E4C701B6010E94C90B8823C8
:100220004CF4C0921A02D0921B02E0921C02F0928F
:100230001D0210C020E030E044EB53E4C701B601DA
:100240000E94150A60931A0270931B0280931C028D
:1002500090931D02C0901A02D0901B02E0901C02E5
:10026000F0901D0220E030E0A901C701B6010E9414
:100270007A0A88238CF420E030E044E353E4C70199
:10028000B6010E94160A60931A0270931B028093B3
:100290001C0290931D021AC020E030E044E353E4B6
:1002A000C701B6010E94C90B882384F020E030E02A
:1002B00044EB53E4C701B6010E94150A60931A0289
:1002C00070931B0280931C0290931D0260911A028E
:1002D00070911B0280911C0290911D02FF90EF9083
:1002E000DF90CF9008955B9A8DB38C638DBBE9E668
:1002F000F0E08081806F8083EAE6F0E080818F60AB
:100300008083789408951F920F920FB60F92112454
:100310000BB60F92CF92DF92EF92FF922F933F9303
:100320004F935F936F937F938F939F93AF93BF93FD
:10033000EF93FF93DDD40E94170B60932703709314
:1003400028038093290390932A0360917D02709182
:100350007E0280917F0290918002C0902703D0900E
:100360002803E0902903F0902A0320E030E040E2E7
:1003700051E40E94160AA70196010E947A0A1816F3
:10038000CCF024DF6093A5027093A6028093A702AD
:100390009093A8028091270390912803A0912903AC
:1003A000B0912A0380937D0290937E02A0937F02F6
:1003B000B093800281E090E0FAD49093990080930A
:1003C000980082E090E0F3D49093890080938800B5
:1003D00083E090E0ECD490938D0080938C0084E0D7
:1003E00090E0E5D490938B0080938A00FF91EF9189
:1003F000BF91AF919F918F917F916F915F914F913D
:100400003F912F91FF90EF90DF90CF900F900BBE18
:100410000F900FBE0F901F9018951F920F920FB65E
:100420000F9211248F939F93AF93BF9380910A02F1
:1004300090910B02A0910C02B0910D020196A11DAA
:10044000B11D80930A0290930B02A0930C02B0930B
:100450000D02BF91AF919F918F910F900FBE0F90A2
:100460001F9018951F920F920FB60F9211240BB682
:100470000F924F925F926F927F92AF92BF92CF9204
:10048000DF92EF92FF920F931F932F933F934F931F
:100490005F936F937F938F939F93AF93BF93CF930C
:1004A000DF93EF93FF936091A4007091A50080E02B
:1004B00090E00E94170B6093890270938A028093E8
:1004C0008B0290938C0280910A0290910B02A09172
:1004D0000C02B0910D02909344028093430220914C
:1004E0004302309144028091C5029091C6022817C0
:1004F0003907D1F46091890270918A0280918B0250
:1005000090918C02209165023091660240916702C1
:10051000509168028AD76093990270939A028093EF
:100520009B0290939C0244C0E8EAF0E060817181F4
:10053000C0906502D0906602E0906702F090680279
:100540004090890250908A0260908B0270908C02D9
:10055000C0914302D0914402A090C502B090C6025F
:100560000081118180E090E00E94170BA7019601A5
:100570005CD7A30192015AD76B017C01CA19DB0930
:10058000C09FB001C19F700DD09F700D112480E0FD
:1005900090E00E94170B9B01AC01C701B60146D742
:1005A0006093990270939A0280939B0290939C02AD
:1005B0008091890290918A02A0918B02B0918C0265
:1005C0008093650290936602A0936702B0936802DD
:1005D00080914302909144029093C6028093C50299
:1005E0006091990270919A0280919B0290919C0275
:1005F00020E030E84BE154E40E94CD0B9B01AC01BC
:1006000060E074E284E797E479D76093FF02709327
:1006100000038093010390930203FF91EF91DF9118
:10062000CF91BF91AF919F918F917F916F915F918A
:100630004F913F912F911F910F91FF90EF90DF907D
:10064000CF90BF90AF907F906F905F904F900F9042
:100650000BBE0F900FBE0F901F9018951F920F9218
:100660000FB60F9211240BB60F924F925F926F92BA
:100670007F92AF92BF92CF92DF92EF92FF920F9351
:100680001F932F933F934F935F936F937F938F931A
:100690009F93AF93BF93CF93DF93EF93FF936091BB
:1006A000A4007091A50080E090E0C1D76093590349
:1006B00070935A0380935B0390935C0380910A02CA
:1006C00090910B02A0910C02B0910D0290938202C6
:1006D00080938102209181023091820280915703A0
:1006E0009091580328173907D1F4609159037091FC
:1006F0005A0380915B0390915C03209165033091D4
:10070000660340916703509168038FD6609385021A
:1007100070938602809387029093880242C0E8EA31
:10072000F0E060817181C0906503D0906603E09035
:100730006703F09068034090590350905A0360900B
:100740005B0370905C03C0918102D0918202A09003
:100750005703B09058030081118180E090E067D783
:10076000A701960162D6A301920160D66B017C01BC
:10077000CA19DB09C09FB001C19F700DD09F700DD9
:10078000112480E090E053D79B01AC01C701B60172
:100790004DD6609385027093860280938702909372
:1007A00088028091590390915A03A0915B03B09104
:1007B0005C038093650390936603A0936703B093F3
:1007C00068038091810290918202909358038093F4
:1007D0005703609185027091860280918702909103
:1007E000880220E030E84BE154E4D7D79B01AC010C
:1007F00060E074E284E797E481D66093030370932A
:1008000004038093050390930603FF91EF91DF911A
:10081000CF91BF91AF919F918F917F916F915F9198
:100820004F913F912F911F910F91FF90EF90DF908B
:10083000CF90BF90AF907F906F905F904F900F9050
:100840000BBE0F900FBE0F901F9018951F920F9226
:100850000FB60F9211240BB60F924F925F926F92C8
:100860007F92AF92BF92CF92DF92EF92FF920F935F
:100870001F932F933F934F935F936F937F938F9328
:100880009F93AF93BF93CF93DF93EF93FF936091C9
:10089000A4007091A50080E090E0C9D66093610348
:1008A00070936203809363039093640380910A02C0
:1008B00090910B02A0910C02B0910D0290938E02C8
:1008C00080938D0220918D0230918E0280918F0253
:1008D0009091900228173907D1F4609161037091CB
:1008E000620380916303909164032091C702309169
:1008F000C8024091C9025091CA0297D560939D02E7
:1009000070939E0280939F029093A00242C0E8EAF7
:10091000F0E060817181C090C702D090C802E09081
:10092000C902F090CA024090610350906203609047
:10093000630370906403C0918D02D0918E02A090E9
:100940008F02B09090020081118180E090E06FD61C
:10095000A70196016AD5A301920168D56B017C01BC
:10096000CA19DB09C09FB001C19F700DD09F700DE7
:10097000112480E090E05BD69B01AC01C701B60179
:1009800055D560939D0270939E0280939F02909331
:10099000A0028091610390916203A0916303B091E2
:1009A00064038093C7029093C802A093C902B093D6
:1009B000CA0280918D0290918E0290939002809352
:1009C0008F0260919D0270919E0280919F02909192
:1009D000A00220E030E84BE154E4DFD69B01AC01FB
:1009E00060E074E284E797E489D56093070370932D
:1009F00008038093090390930A03FF91EF91DF911D
:100A0000CF91BF91AF919F918F917F916F915F91A6
:100A10004F913F912F911F910F91FF90EF90DF9099
:100A2000CF90BF90AF907F906F905F904F900F905E
:100A30000BBE0F900FBE0F901F9018951F920F9234
:100A40000FB60F9211240BB60F924F925F926F92D6
:100A50007F92AF92BF92CF92DF92EF92FF920F936D
:100A60001F932F933F934F935F936F937F938F9336
:100A70009F93AF93BF93CF93DF93EF93FF936091D7
:100A8000A4007091A50080E090E0D1D56093910220
:100A900070939202809393029093940280910A0241
:100AA00090910B02A0910C02B0910D0290938402E0
:100AB0008093830220918302309184028091E1022D
:100AC0009091E20228173907D1F460919102709158
:100AD000920280919302909194022091A902309108
:100AE000AA024091AB025091AC029FD460935D0387
:100AF00070935E0380935F039093600342C0E8EAC3
:100B0000F0E060817181C090A902D090AA02E090CB
:100B1000AB02F090AC024090910250909202609033
:100B2000930270909402C0918302D0918402A090AD
:100B3000E102B090E2020081118180E090E077D57F
:100B4000A701960172D4A301920170D46B017C01BC
:100B5000CA19DB09C09FB001C19F700DD09F700DF5
:100B6000112480E090E063D59B01AC01C701B60180
:100B70005DD460935D0370935E0380935F039093F5
:100B800060038091910290919202A0919302B091A2
:100B900094028093A9029093AA02A093AB02B0930F
:100BA000AC0280918302909184029093E202809340
:100BB000E10260915D0370915E0380915F0390910B
:100BC000600320E030E84BE154E4E7D59B01AC0141
:100BD00060E074E284E797E491D460930B03709330
:100BE0000C0380930D0390930E03FF91EF91DF911F
:100BF000CF91BF91AF919F918F917F916F915F91B5
:100C00004F913F912F911F910F91FF90EF90DF90A7
:100C1000CF90BF90AF907F906F905F904F900F906C
:100C20000BBE0F900FBE0F901F90189560E074E2FE
:100C300084EF90E04DD08ED280E092E0AED256D3D9
:100C400060D051DB70DA11B8019B0FC061E070E039
:100C500080E090E0C3D22FEF81EE94E021508040FD
:100C60009040E1F700C00000EFCF60E070E0CB0102
:100C7000B5D22FEF81EE94E0215080409040E1F713
:100C800000C00000E1CF1F920F920FB60F92112407
:100C90008F939F93AF93BF938091690390916A0361
:100CA000A0916B03B0916C030196A11DB11D8093BF
:100CB000690390936A03A0936B03B0936C03BF9195
:100CC000AF919F918F910F900FBE0F901F9018952D
:100CD00022E024BD23E025BD20E838E341E050E0D8
:100CE000BFD527BDEEE6F0E0808182608083089565
:100CF0006091690370916A0380916B0390916C031A
:100D00000895E0E8F0E080818B6A8083E1E8F0E01C
:100D100080818C608083E0E9F0E080818B6A808351
:100D2000E1E9F0E080818C608083E0E2F1E08081A5
:100D30008083E1E2F1E080818A60808392E0909399
:100D400073002FEC37E03093290120932801E0EA6B
:100D5000F0E080818083E1EAF0E080818C60808334
:100D60009093720084E294EF9093A9008093A8007E
:100D70008FEF91E09093A5008093A4008FEF81B94D
:100D800084B1806E84B96B9AEBE2F3E01482158231
:100D9000168217821086118612861386148615868F
:100DA00016861786108A118A128A138A08954F921E
:100DB0005F926F927F928F929F92AF92BF92CF92EB
:100DC000DF92EF92FF920F931F93CF93DF938C01EB
:100DD0008091DF029091E002892B09F0C2C06091FE
:100DE000A5027091A6028091A7029091A8029BD1C2
:100DF0002091530330915403409155035091560371
:100E000015D36093A1027093A2028093A3029093E2
:100E1000A4026091A1027091A2028091A30290911C
:100E2000A4022091E3023091E4024091E502509146
:100E3000E602FBD22FE632E143E05BE35FD360934F
:100E4000490270934A0280934B0290934C02609146
:100E5000A5027091A6028091A7029091A80220E0BD
:100E600030E0A90196D418167CF58091A1029091EA
:100E7000A202A091A302B091A402BC01CD0190589E
:100E80002DEC3CEC4CE45DE388D4CBECD2E0688BF9
:100E9000798B8A8B9B8B688779878A879B87609100
:100EA000A1027091A2028091A3029091A4022DEC64
:100EB0003CEC4CE45DE371D46C877D878E879F8723
:100EC0006C837D838E839F836091A5027091A602BF
:100ED0008091A7029091A80220E030E0A9010AD3F6
:100EE00088237CF56091A1027091A2028091A302F7
:100EF0009091A4022DEC3CEC4CE45DE34ED4CBECA1
:100F0000D2E0688B798B8A8B9B8B688779878A87FD
:100F10009B876091A1027091A2028091A30290919F
:100F2000A4022DEC3CEC4CE45DE337D4DC01CB01B6
:100F3000B0588C839D83AE83BF838C879D87AE879B
:100F4000BF878091A1029091A202A091A302B091CB
:100F5000A4028093E3029093E402A093E502B0938D
:100F6000E602E801CC0FDD1FCC0FDD1FFE01E759C3
:100F7000FD4F6081718182819381FE01E553FD4FB8
:100F8000208131814281538151D2FE01E15CFC4FCD
:100F90006083718382839383608171818281938175
:100FA000FE01E550FD4F20813181428153813DD2C8
:100FB0009E0129513D4F7901F9016083718382833C
:100FC000938360817181828193819E01255D3C4F75
:100FD0006901F90180809180A280B3802FE632E11F
:100FE00043E05BE3DAD3A501940120D2F6016083EC
:100FF000718382839383F701608171818281938100
:10100000FE01E355FD4F20813181428153810DD294
:101010002FE632E143E05BE371D2CF5ADD4F6883C4
:1010200079838A839B83F7016081718182819381B7
:10103000F601C080D180E280F38088809980AA8008
:10104000BB8020E030E048E454E4A7D32B013C010E
:1010500020E030E040E451E4C701B6019ED39B019B
:10106000AC01C301B201E2D16B017C0120E030E0B0
:1010700040E450E4C501B40190D39B01AC01C70129
:10108000B601D4D1A3D2F801EE0FFF1FEB5EFC4FE7
:10109000718360838081918199233CF4F801EE0F84
:1010A000FF1FEB5EFC4F11821082F801EE0FFF1F55
:1010B000EB5EFC4F80819181811594404CF0F801EA
:1010C000EE0FFF1FEB5EFC4F8FEF93E09183808369
:1010D000C801880F991F880F991FFC01E951FD4F26
:1010E0004081518162817381FC01E355FD4F408352
:1010F000518362837383000F111FF801EB5EFC4F75
:1011000080819181DF91CF911F910F91FF90EF909E
:10111000DF90CF90BF90AF909F908F907F906F9017
:101120005F904F900895CF92DF92EF92FF926B0104
:101130007C0120E030E0A901DDD1882324F4F7FA16
:10114000F094F7F8F094C701B601FF90EF90DF90AC
:10115000CF90089580910E0290910F02A0911002FD
:10116000B0911102892F9A2FAB2FBB27A7FDBA95FB
:101170008093C50080910E028093C40088E1809323
:10118000C10086E08093C2000895E0ECF0E0908119
:1011900095FFFDCF8093C6000895EF92FF920F93C5
:1011A0001F93CF93DF938C017C01C0E0D0E005C09A
:1011B000F70181917F01E9DF2196F801019000207C
:1011C000E9F73197E01BF10BCE17DF0788F3DF91CA
:1011D000CF911F910F91FF90EF9008952F923F9222
:1011E0004F925F927F928F929F92AF92BF92CF92D7
:1011F000DF92EF92FF920F931F93CF93DF93CDB7C0
:10120000DEB7A0970FB6F894DEBF0FBECDBF6B015F
:101210007C0199230CF04CC083E092E0BEDFF09497
:10122000E094D094C094C11CD11CE11CF11CC114E9
:10123000D104E104F10419F480E3A7DF3FC08E017B
:101240000F5F1F4F5E0181E2A80EB11CF8011192E1
:10125000EA15FB05E1F70F2EFFE17F2EF02D0F2E93
:10126000FAE02F2E312C412C512CF02D8824839420
:10127000912C8C0E9D1E870C911CC701B601A201FA
:10128000910110D3605DF4016083C22ED32EE42E51
:10129000F52E7A94C114D104E104F10439F7F80170
:1012A00081918F01811171DF0A151B05C1F706C0FD
:1012B000672B682B692B09F0C2CFBECFA0960FB663
:1012C000F894DEBF0FBECDBFDF91CF911F910F917C
:1012D000FF90EF90DF90CF90BF90AF909F908F9056
:1012E0007F905F904F903F902F9008958DE04DDF5D
:1012F0008AE04BCF0895823091053CF490936E03C1
:1013000080936D0380E090E0089580916D0390914B
:101310006E030895ECEBF0E08081846A8083808125
:101320008823ECF78091B900883041F02091B90012
:1013300081E090E0203121F480E0089580E090E0A9
:1013400008958093BB0084E88093BC00ECEBF0E050
:1013500080818823ECF78091B900883161F0809119
:10136000B900883259F02091B90081E090E0203432
:1013700039F480E0089580E090E0089580E090E006
:101380000895CF92DF92EF92FF920F931F93CF9326
:10139000DF938C017B01BEDFEC01892B31F084E906
:1013A0008093BC00C0E0D0E036C0C801CADF6C0149
:1013B000892B21F084E98093BC002DC0C701C1DFD7
:1013C000EC01892B29F084E98093BC00E60123C05D
:1013D000A1DFC8018160B5DF892B21F084E980930A
:1013E000BC0019C084EC8093BC00ECEBF0E0808181
:1013F0008823ECF7C091BB0084E88093BC00ECEB41
:10140000F0E080818823ECF78091BB0094E9909311
:10141000BC00D0E0D82BCE01DF91CF911F910F916E
:10142000FF90EF90DF90CF9008955058BB27AA27E8
:101430000ED075C166D130F06BD120F031F49F3FF2
:1014400011F41EF45BC10EF4E095E7FB51C1E92FE6
:1014500077D180F3BA17620773078407950718F0EE
:1014600071F49EF58FC10EF4E0950B2EBA2FA02DCE
:101470000B01B90190010C01CA01A0011124FF2741
:10148000591B99F0593F50F4503E68F11A16F0403C
:10149000A22F232F342F4427585FF3CF469537953B
:1014A0002795A795F0405395C9F77EF41F16BA0B00
:1014B000620B730B840BBAF09150A1F0FF0FBB1FAE
:1014C000661F771F881FC2F70EC0BA0F621F731FF7
:1014D000841F48F4879577956795B795F7959E3F54
:1014E00008F0B3CF9395880F08F09927EE0F9795E2
:1014F00087950895D9D008F481E008950CD00FC1E4
:1015000007D140F0FED030F021F45F3F19F0F0C079
:10151000511139C1F3C014D198F39923C9F355235C
:10152000B1F3951B550BBB27AA27621773078407D6
:1015300038F09F5F5F4F220F331F441FAA1FA9F38C
:1015400033D00E2E3AF0E0E830D091505040E6957E
:10155000001CCAF729D0FE2F27D0660F771F881FDF
:10156000BB1F261737074807AB07B0E809F0BB0BCE
:10157000802DBF01FF2793585F4F2AF09E3F5105F2
:1015800068F0B6C000C15F3FECF3983EDCF386958F
:1015900077956795B795F7959F5FC9F7880F911D68
:1015A0009695879597F90895E1E0660F771F881F54
:1015B000BB1F621773078407BA0720F0621B730B07
:1015C000840BBA0BEE1F88F7E095089504D0689459
:1015D000B111D9C00895BCD088F09F5790F0B92FB1
:1015E0009927B751A0F0D1F0660F771F881F991F78
:1015F0001AF0BA95C9F712C0B13081F0C3D0B1E08A
:101600000895C0C0672F782F8827B85F39F0B93F99
:10161000CCF3869577956795B395D9F73EF4909579
:101620008095709561957F4F8F4F9F4F0895E894F7
:1016300009C097FB3EF490958095709561957F4F1A
:101640008F4F9F4F9923A9F0F92F96E9BB279395C8
:10165000F695879577956795B795F111F8CFFAF4D8
:10166000BB0F11F460FF1BC06F5F7F4F8F4F9F4F09
:1016700016C0882311F096E911C0772321F09EE867
:10168000872F762F05C0662371F096E8862F70E0CD
:1016900060E02AF09A95660F771F881FDAF7880FA7
:1016A0009695879597F90895990F0008550FAA0BFD
:1016B000E0E8FEEF16161706E807F907C0F0121665
:1016C0001306E407F50798F0621B730B840B950B68
:1016D00039F40A2661F0232B242B252B21F40895BD
:1016E0000A2609F4A140A6958FEF811D811D08955A
:1016F00097F99F6780E870E060E008959FEF80ECC5
:10170000089500240A941616170618060906089567
:1017100000240A9412161306140605060895092ECD
:101720000394000C11F4882352F0BB0F40F4BF2B3C
:1017300011F460FF04C06F5F7F4F8F4F9F4F08957C
:1017400057FD9058440F551F59F05F3F71F0479572
:10175000880F97FB991F61F09F3F79F08795089557
:10176000121613061406551FF2CF4695F1DF08C076
:10177000161617061806991FF1CF86957105610593
:1017800008940895E894BB2766277727CB0197F93B
:1017900008958ADF08F48FEF08950BD0C0CFB1DF32
:1017A00028F0B6DF18F0952309F0A2CFA7CF1124B7
:1017B000EACFC6DFA0F3959FD1F3950F50E0551FF8
:1017C000629FF001729FBB27F00DB11D639FAA2796
:1017D000F00DB11DAA1F649F6627B00DA11D661FE5
:1017E000829F2227B00DA11D621F739FB00DA11D06
:1017F000621F839FA00D611D221F749F3327A00DC0
:10180000611D231F849F600D211D822F762F6A2F5B
:1018100011249F5750408AF0E1F088234AF0EE0FE0
:10182000FF1FBB1F661F771F881F91505040A9F7ED
:101830009E3F510570F05CCFA6CF5F3FECF3983E22
:10184000DCF3869577956795B795F795E7959F5F54
:10185000C1F7FE2B880F911D9695879597F90895EE
:10186000A1E21A2EAA1BBB1BFD010DC0AA1FBB1FA4
:10187000EE1FFF1FA217B307E407F50720F0A21B16
:10188000B30BE40BF50B661F771F881F991F1A9483
:1018900069F760957095809590959B01AC01BD01AD
:1018A000CF010895052E97FB16F400940FD057FD35
:1018B00005D0D6DF07FC02D046F408C0509540950D
:1018C000309521953F4F4F4F5F4F089590958095EC
:1018D000709561957F4F8F4F9F4F0895F894FFCF7C
:0A18E0007864002D002E002C00009B
:00000001FF
