S01F0000436F6E74726F6C6C6F206D6F746F726920284E616E6F292E7372656392
S11300000C9475000C94FF000C9412020C94920052
S11300100C9492000C9492000C9492000C94B000F6
S11300200C9492000C9492000C9492000C94920004
S11300300C9492000C9492000C94DA000C949200AC
S11300400C9492000C9492000C9492000C949200E4
S11300500C9492000C9492000C9492000C949200D4
S11300600C9492000C94920007634236B79BD8A775
S11300701A39685618AEBAAB558C1D3CB7CC5763C9
S1130080BD6DEDFD753EF6177231BF000000803F77
S113009008000000BE922449123EABAAAA2ABECD93
S11300A0CCCC4C3E00000080BEABAAAAAA3E000005
S11300B00000BF000000803F0000000000084178FD
S11300C0D3BB4387D1133D190E3CC3BD4282AD2B34
S11300D03E68EC8276BED98FE1A93E4C80EFFFBE2C
S11300E001C4FF7F3F000000000011241FBECFEFBA
S11300F0D8E0DEBFCDBF11E0A0E0B1E0E2E5F6E17B
S113010002C005900D92AA30B107D9F722E0AAE007
S1130110B1E001C01D92A035B207E1F70E941C02B4
S11301200C94270B0C940000EAE7F0E080818760D0
S11301308083ACE7B0E08C9180648C93808180688C
S1130140808380818064808308955B9A8DB383600B
S11301508DBBE9E6F0E080818F6080837894089518
S11301601F920F920FB60F9211242F933F934F9328
S11301705F936F937F938F939F93AF93BF93EF930B
S1130180FF9381E090E00E94930290938900809312
S11301908800FF91EF91BF91AF919F918F917F91D3
S11301A06F915F914F913F912F910F900FBE0F90E0
S11301B01F9018951F920F920FB60F9211248F93D0
S11301C09F93AF93BF9380910A0190910B01A091EB
S11301D00C01B0910D010196A11DB11D80930A017E
S11301E090930B01A0930C01B0930D01BF91AF91BB
S11301F09F918F910F900FBE0F901F9018951F9293
S11302000F920FB60F9211244F925F926F927F92CA
S11302108F929F92AF92BF92CF92DF92EF92FF9212
S11302202F933F934F935F936F937F938F939F93FA
S1130230AF93BF93EF93FF9386B590E0A0E0B0E057
S113024080935A0190935B01A0935C01B0935D018C
S113025080910A0190910B01A0910C01B0910D01C4
S11302608093120190931301A0931401B09315018C
S11302704091120150911301609114017091150184
S11302808091AE019091AF01A091B001B091B10104
S1130290481759076A077B07E9F480915A0190913E
S11302A05B01A0915C01B0915D01409136015091D8
S11302B037016091380170913901841B950BA60BAD
S11302C0B70B80936E0190936F01A0937001B0936C
S11302D071014BC0E7B58090360190903701A09032
S11302E03801B0903901C0905A01D0905B01E09080
S11302F05C01F0905D0140911201509113016091F5
S11303001401709115014090AE015090AF016090BE
S1130310B0017090B101A7B541505109610971094B
S11303209A01AB012419350946095709B0E00E9426
S11303302A0A4E2E512C612C712CA30192012819EA
S113034039094A095B09C20ED31EE41EF51EDC01FD
S1130350CB018C0D9D1DAE1DBF1D80936E0190932E
S11303606F01A0937001B093710160916E0170915F
S11303706F0180917001909171010E942D0720E01E
S113038030E84BE154E40E9446089B01AC0160E074
S113039074E284E798E40E9485066093EA0170930E
S11303A0EB018093EC019093ED0180915A019091BF
S11303B05B01A0915C01B0915D0180933601909343
S11303C03701A0933801B0933901809112019091C3
S11303D01301A0911401B09115018093AE01909383
S11303E0AF01A093B001B093B101FF91EF91BF9120
S11303F0AF919F918F917F916F915F914F913F91B9
S11304002F91FF90EF90DF90CF90BF90AF909F908F
S11304108F907F906F905F904F900F900FBE0F90D2
S11304201F9018951F920F920FB60F9211240F90E0
S11304300FBE0F901F9018950E94F6030E9494001F
S113044080E091E00E9419040E9438050E945C0239
S11304500E94A50017B81AB880E090E0A0E8BFE3B6
S11304608093420190934301A0934401B0934501CA
S113047006EE11E0C8E8D0E0F80164817581868158
S1130480978120E030E04AE754E40E9446080E9445
S11304903F0583E091E00E94190488809980282D0B
S11304A0392D40E050E060E070E080E090E00E9490
S11304B03B040E943805E0CFE0E8F0E08081836AE5
S11304C08083E1E8F0E080818C608083E0EBF0E001
S11304D080818083E1EBF0E080818B60808322E087
S11304E0209370008FEF8093B30094B5926094BD15
S11304F095B59B6095BD20936E0087BD86BD84B97C
S1130500E2E1F2E0148215821682178210861186C7
S1130510128613861486158616861786108A118A03
S1130520128A138A08958F929F92AF92BF92CF92AC
S1130530DF92EF92FF920F931F93CF93DF93EC011F
S11305408C01000F111F000F111FF801E25CFE4F18
S11305506081718182819381F801EA51FE4F20818B
S11305603181428153810E941306F801EE52FE4FFD
S1130570608371838283938360817181828193819B
S11305800E5E1D4FF801C080D180E280F3802FE61B
S113059032E143E05BE30E944608A70196010E9412
S11305A01406F8016083718382839383608171816F
S11305B08281938120E030E040E85FE30E944108BB
S11305C018169CF0F801608171818281938120E08A
S11305D030E040E85FEB0E94800688235CF0F8017D
S11305E0408151816281738109C040E050E060E83C
S11305F07FE304C040E050E060E87FEBCE01880F69
S1130600991F880F991FFC01EE5EFD4F40835183B3
S113061062837383FC01EE52FE4F6081718182819B
S1130620938120E030E842E254E40E94460820E04E
S113063030E04AE754E40E94410818165CF1FE01D8
S1130640EE0FFF1FEE0FFF1FEE52FE4F6081718110
S11306508281938120E030E842E254E40E9446081B
S113066020E030E04AE754EC0E9480068823BCF086
S1130670FE01EE0FFF1FEE0FFF1FEE52FE4F6081D3
S113068071818281938120E030E842E254E40E9447
S1130690460809C060E070E08AE794E404C060E0C2
S11306A070E08AE794EC8E01000F111F000F111FF8
S11306B098012A583E4F7901F9016083718382833E
S11306C09383F801EE52FE4F6081718182819381A0
S11306D0F801EA56FE4F20813181428153810E9404
S11306E013062FE632E143E05BE30E948506D8015E
S11306F0AE5DBE4F6D937D938D939C931397F701DD
S1130700C080D180E280F380F801EE5EFD4F60810D
S11307107181828193818D909D90AD90BC9020E0F9
S113072030E04AE753E40E944608A70196010E947C
S113073014066B017C012AE939E949E95EE3C50144
S1130740B4010E9446089B01AC01C701B6010E9496
S113075014060E94F706FE01EE0FFF1FE050FE4F45
S1130760718360838081918199233CF4FE01EE0FB3
S1130770FF1FE050FE4F11821082FE01EE0FFF1F9B
S1130780E050FE4F80819181811594404CF0FE0130
S1130790EE0FFF1FE050FE4F8FEF93E091838083B5
S11307A0CE01880F991F880F991FFC01EE52FE4F4E
S11307B04081518162817381FC01EA56FE4F40837E
S11307C0518362837383CC0FDD1FC050DE4F888159
S11307D09981DF91CF911F910F91FF90EF90DF905E
S11307E0CF90BF90AF909F908F90089580910E010D
S11307F090910F01A0911001B0911101892F9A2FAE
S1130800AB2FBB27A7FDBA958093C50080910E013D
S11308108093C40088E18093C10086E08093C20085
S11308200895E0ECF0E0908195FFFDCF8093C60041
S11308300895EF92FF920F931F93CF93DF938C0150
S11308407C01C0E0D0E006C0F70181917F010E94E5
S113085011042196F80101900020E9F73197E01B7B
S1130860F10BCE17DF0780F3DF91CF911F910F912A
S1130870FF90EF9008952F923F924F925F926F9264
S11308807F928F929F92AF92BF92CF92DF92EF921C
S1130890FF920F931F93CF93DF93CDB7DEB7C95465
S11308A0D1090FB6F894DEBF0FBECDBF222E332E72
S11308B0042F22965FAF2297862E172F23968FAF91
S11308C0239724969FAF2497A0E00E940C0B0CF072
S11308D0A6C085E091E00E941904222D332D402FFB
S11308E022965FAD2297682D712F23968FAD2397A3
S11308F024969FAD24970E94C50A222E332E042FDE
S113090022965FAF2297862E172F23968FAF2397B9
S113091024969FAF2497A0E00E940C0B21F480E35F
S11309200E9411048BC0CE0101962C013E0191E27C
S1130930690E711CF2011192E615F705E1F70F2E0D
S1130940FFE19F2EF02D28965FAE4EAE28972A9693
S11309507FAE6EAE2A97792C502E912EE1E0F0E016
S1130960EC0FFD1FE70DF11D2696FFAFEEAF2697A6
S11309700F2EFAE0AF2EF02DB12CC12CD12CE12C8E
S1130980F12C00E010E0222D332D452D22965FAD91
S11309902297682D792D23968FAD239724969FADAA
S11309A024970E94350A205D2696EEADFFAD26976A
S11309B02083222D332D452D22965FAD2297682D5D
S11309C0792D23968FAD239724969FAD24970E946B
S11309D0370A222E332E542E22965FAF2297862E6C
S11309E0972E23968FAF239724969FAF24977A94BC
S11309F0A0E00E940C0B09F0B1CF28964EAC5FAC7E
S1130A0028972A966EAC7FAC2A97F20181912F0128
S1130A1081110E94110446145704B9F70FC022969D
S1130A205FAD229723968FAD239724969FAD24978D
S1130A30A0E00E940C0B09F076CF71CFC75BDF4FAB
S1130A400FB6F894DEBF0FBECDBFDF91CF911F91DB
S1130A500F91FF90EF90DF90CF90BF90AF909F9059
S1130A608F907F906F905F904F903F902F9008955C
S1130A708DE00E9411048AE00E94110408954F92AF
S1130A805F926F927F928F929F92AF92BF92CF921A
S1130A90DF92EF92FF920F931F93CF93DF936B013B
S1130AA07C0120E030E0A9010E948006882344F400
S1130AB085E091E00E941904F7FAF094F7F8F094B5
S1130AC0C701B6010E94F7062B013C014B015C01F2
S1130AD0BB0C8808982C5401262F352D462D572DF4
S1130AE0682D782D882D982D0E943B04C0E0D0E01D
S1130AF00BC020E030E040E251E4C701B6010E949F
S1130B0046086B017C01219620E030E040E85FE379
S1130B10C701B6010E94750720E030E0A9010E94D8
S1130B2080068111E6CFBE010D2E000C880B990BB7
S1130B300E942F079B01AC0160E070E080E291E429
S1130B400E94B3084B015C01C301B2010E942F074C
S1130B50A50194010E9446080E94F7060E942F07EF
S1130B609B01AC01C701B6010E9413066B017C0115
S1130B700E94F7064B015C0120E030E040E85FE3AF
S1130B80C701B6010E9441081816BCF400E010E049
S1130B9020E030E040E251E4C701B6010E9485063E
S1130BA06B017C010F5F1F4F20E030E040E85FE302
S1130BB00E944108181664F302C000E010E0C01B54
S1130BC0D10B87E091E00E9419041C161D0654F411
S1130BD000E010E080E30E9411040F5F1F4FC01774
S1130BE0D107C1F775016401FF0CCC08DC2C760138
S1130BF0282D392D4A2D5B2D6C2D7C2D8C2D9C2D73
S1130C000E943B04DF91CF911F910F91FF90EF90D1
S1130C10DF90CF90BF90AF909F908F907F906F9018
S1130C205F904F9008955058BB27AA270E942B0627
S1130C300C9407080E94F90738F00E94000820F07D
S1130C4039F49F3F19F426F40C94F6070EF4E0955A
S1130C50E7FB0C94E207E92F0E94180858F3BA172F
S1130C60620773078407950720F079F4A6F50C94BE
S1130C703A080EF4E0950B2EBA2FA02D0B01B90102
S1130C8090010C01CA01A0011124FF27591B99F0FE
S1130C90593F50F4503E68F11A16F040A22F232F0A
S1130CA0342F4427585FF3CF469537952795A7955A
S1130CB0F0405395C9F77EF41F16BA0B620B730B01
S1130CC0840BBAF09150A1F0FF0FBB1F661F771F72
S1130CD0881FC2F70EC0BA0F621F731F841F48F427
S1130CE0879577956795B795F7959E3F08F0B0CFB0
S1130CF09395880F08F09927EE0F97958795089597
S1130D000E94BE0708F481E008950E9499060C949D
S1130D1007080E94000858F00E94F90740F029F4DF
S1130D205F3F29F00C94E20751110C943B080C949A
S1130D30F6070E94180868F39923B1F3552391F339
S1130D40951B550BBB27AA2762177307840738F036
S1130D509F5F5F4F220F331F441FAA1FA9F335D093
S1130D600E2E3AF0E0E832D091505040E695001C47
S1130D70CAF72BD0FE2F29D0660F771F881FBB1F01
S1130D80261737074807AB07B0E809F0BB0B802DDF
S1130D90BF01FF2793585F4F3AF09E3F510578F00B
S1130DA00C94E2070C943B085F3FE4F3983ED4F3C1
S1130DB0869577956795B795F7959F5FC9F7880FDF
S1130DC0911D9695879597F90895E1E0660F771F31
S1130DD0881FBB1F621773078407BA0720F0621BC2
S1130DE0730B840BBA0BEE1F88F7E09508950E94ED
S1130DF0FE066894B1110C943B0808950E942008E3
S1130E0088F09F5798F0B92F9927B751B0F0E1F0C7
S1130E10660F771F881F991F1AF0BA95C9F714C077
S1130E20B13091F00E943A08B1E008950C943A0868
S1130E30672F782F8827B85F39F0B93FCCF38695B0
S1130E4077956795B395D9F73EF49095809570950D
S1130E5061957F4F8F4F9F4F0895E89409C097FB8A
S1130E603EF490958095709561957F4F8F4F9F4F7D
S1130E709923A9F0F92F96E9BB279395F6958795C1
S1130E8077956795B795F111F8CFFAF4BB0F11F484
S1130E9060FF1BC06F5F7F4F8F4F9F4F16C088232B
S1130EA011F096E911C0772321F09EE8872F762F61
S1130EB005C0662371F096E8862F70E060E02AF0A2
S1130EC09A95660F771F881FDAF7880F969587958E
S1130ED097F908950E94F90720F019F00E9400087C
S1130EE050F40C94F6070C943B08E92F0E94180860
S1130EF088F35523B1F3E7FB62177307840795075B
S1130F00A8F189F3E92FFF2788232AF03197660F88
S1130F10771F881FDAF7952F5527442332F0915015
S1130F205040220F331F441FD2F7BB27E91BF50B98
S1130F30621B730B840BB109B1F222F4620F731FAD
S1130F40841FB11D31972AF0660F771F881FBB1FBE
S1130F50EFCF9150504062F041F0882332F0660F99
S1130F60771F881F91505040C1F793950C94E80760
S1130F708695779567959F5FD9F7F7CF990F000806
S1130F80550FAA0BE0E8FEEF16161706E807F90757
S1130F90C0F012161306E407F50798F0621B730BF2
S1130FA0840B950B39F40A2661F0232B242B252B73
S1130FB021F408950A2609F4A140A6958FEF811D16
S1130FC0811D089597F99F6780E870E060E00895B7
S1130FD09F3F31F0915020F4879577956795B795A9
S1130FE0880F911D9695879597F908959FEF80EC4A
S1130FF0089500240A94161617061806090608957B
S113100000240A9412161306140605060895092EE0
S11310100394000C11F4882352F0BB0F40F4BF2B4F
S113102011F460FF04C06F5F7F4F8F4F9F4F08958F
S113103057FD9058440F551F59F05F3F71F0479585
S1131040880F97FB991F61F09F3F79F0879508956A
S1131050121613061406551FF2CF4695F1DF08C089
S1131060161617061806991FF1CF869571056105A6
S113107008940895E894BB2766277727CB0197F94E
S113108008950E94BE0708F48FEF08950E9459083E
S11310900C9407080E94F90738F00E94000820F019
S11310A0952311F00C94E2070C94F60711240C9488
S11310B03B080E94180870F3959FC1F3950F50E008
S11310C0551F629FF001729FBB27F00DB11D639FF6
S11310D0AA27F00DB11DAA1F649F6627B00DA11D9C
S11310E0661F829F2227B00DA11D621F739FB00D42
S11310F0A11D621F839FA00D611D221F749F3327B2
S1131100A00D611D231F849F600D211D822F762F4A
S11311106A2F11249F5750409AF0F1F088234AF027
S1131120EE0FFF1FBB1F661F771F881F9150504093
S1131130A9F79E3F510580F00C94E2070C943B08FC
S11311405F3FE4F3983ED4F3869577956795B7951A
S1131150F795E7959F5FC1F7FE2B880F911D969534
S1131160879597F90895FA01EE0FFF1F3096210530
S11311703105A1F16115710561F48038BFE39B0766
S113118049F168949038810561F08038BFEF9B077E
S113119041F099234AF5FF3FE1053105210519F195
S11311A0E8940894E795D901AA2329F4AB2FBE2F1C
S11311B0F85FD0F310C0FF5F70F4A695E0F7F7393D
S11311C050F019F0FF3A38F49F779F930DD00F90A9
S11311D007FC9058089546F00C94F60760E070E020
S11311E080E89FE308954FE79F775F934F933F9382
S11311F02F930E94AE092F913F914F915F910E94CE
S113120046080C940B0929F416F00C94E2070C948C
S11312103A080C94F6070E942008A8F39638A0F721
S113122007F80F92E8942BE33AEA48EB5FE70E9451
S11312305C080F920F920F924DB75EB70F920E9407
S1131240F609E8E6F0E00E943D094F915F91EF91C5
S1131250FF91E595EE1FFF1F49F0FE57E068442714
S1131260EE0F441FFA95E1F74195550B0E94700962
S11312700F9007FE0C9464090895DF93CF931F9396
S11312800F93FF92EF92DF927B018C01689406C06A
S1131290DA2EEF010E945908FE01E894A5912591E8
S11312A0359145915591A6F3EF010E942B06FE015D
S11312B09701A801DA9469F7DF90EF90FF900F91FE
S11312C01F91CF91DF9108959B01AC0160E070E024
S11312D080E89FE30C9485060C94E2070C94E807DD
S11312E00E942008D8F39923C9F3940F511DA3F346
S11312F09150504094F059F0882332F0660F771FD4
S1131300881F91505040C1F79E3F51052CF7880F1C
S1131310911D9695879597F908955F3FACF0983E97
S11313209CF0BB27869577956795B79508F4B160CF
S11313309395C1F7BB0F58F711F460FFE8CF6F5FC7
S11313407F4F8F4F9F4FE3CF0C943B0816F00C94C4
S1131350E8070C94F60768940C94E2070E942008AE
S1131360A8F39923C1F3AEF3DF93CF931F930F93A5
S1131370FF92C92FDD2788232AF02197660F771F54
S1131380881FDAF720E030E040E85FEB9FE388391C
S113139020F0803E38F021968F770E941406E0E911
S11313A0F0E004C00E941406EDEBF0E00E943D0959
S11313B08B01BE01EC01FB2E6F5771097595771FE8
S11313C0880B990B0E942F0728E132E741E35FE382
S11313D00E945908AF2D9801AE01FF900F911F9103
S11313E0CF91DF910E942B060C940708FA01DC01CF
S11313F0AA0FBB1F9B01AC01BF5728F42227332738
S11314004427507820C0B75190F4AB2F0024469560
S113141037952795011CA395D2F3002071F0220F74
S1131420331F441FB395DAF30ED00C9413066130C6
S11314307105A0E88A07B94630F49B01AC01662720
S1131440772788279078309621F020833183428350
S1131450538308950E94180BA59F900DB49F900D7F
S1131460A49F800D911D11240895689401C0E894EF
S1131470F92FF12B12F00C94690AA0E0B0E0E3E438
S1131480FAE00C94DB0A092E059422F40E94C50AA2
S1131490112392F4F0E80F26FFEFE094F094009506
S11314A01095B094C094D094A194BF0ACF0ADF0AD7
S11314B0EF0AFF0A0F0B1F0B0E94740A07FC0E941D
S11314C0C50ACDB7DEB7ECE00C94F70A689401C006
S11314D0E8948F929F92CF93DF930E94740ADF91D6
S11314E0CF919F908F90089588249924F401E4016A
S11314F0B0E49F93AA279A158B049C04ED05FE057E
S1131500CF05D007A10798F4AD2FDC2FCF2FFE2FE6
S1131510E92D982C892E982F872F762F652F542FFD
S1131520432F322F2227B85031F7BF9127C01B2EEB
S1131530BF91BB27220F331F441F551F661F771F00
S1131540881F991F881C991CEE1FFF1FCC1FDD1FCD
S1131550AA1FBB1F8A149B04EC05FD05CE05DF05FD
S1131560A007B10748F08A189B08EC09FD09CE09C9
S1131570DF09A00BB10B21601A94E1F62EF494015B
S1131580AF01BE01CD01000C089560957095809562
S1131590909530954095509521953F4F4F4F5F4F13
S11315A06F4F7F4F8F4F9F4F08952F923F924F92CF
S11315B05F926F927F928F929F92AF92BF92CF92DF
S11315C0DF92EF92FF920F931F93CF93DF93CDB7E8
S11315D0DEB7CA1BDB0B0FB6F894DEBF0FBECDBF60
S11315E009942A88398848885F846E847D848C8431
S11315F09B84AA84B984C884DF80EE80FD800C813A
S11316001B81AA81B981CE0FD11D0FB6F894DEBF1C
S11316100FBECDBFED0108950024A7FD00942A1745
S11316203005400550056005700580059005089556
S1131630A29FB001B39FC001A39F700D811D11240F
S1131640911DB29F700D811D1124911D0895F89470
S1051650FFCFC6
S10D165278640009002D002E00004A
S9030000FC
