S01F0000436F6E74726F6C6C6F206D6F746F726920284E616E6F292E7372656392
S11300000C9434000C949E000C94B1010C94510097
S11300100C9451000C9451000C9451000C946F00FA
S11300200C9451000C9451000C9451000C94510008
S11300300C9451000C9451000C9479000C945100D0
S11300400C9451000C9451000C9451000C945100E8
S11300500C9451000C9451000C9451000C945100D8
S11300600C9451000C94510011241FBECFEFD8E022
S1130070DEBFCDBF11E0A0E0B1E0E6E2F9E002C0EE
S113008005900D92A430B107D9F722E0A4E0B1E0C5
S113009001C01D92AA34B207E1F70E94BB010C947F
S11300A091040C940000EAE7F0E08081876080838B
S11300B0ACE7B0E08C9180648C938081806880830D
S11300C080818064808308955B9A8DB383608DBB47
S11300D0E9E6F0E080818F608083789408951F9230
S11300E00F920FB60F9211240F900FBE0F901F9016
S11300F018951F920F920FB60F9211248F939F930E
S1130100AF93BF938091040190910501A0910601E2
S1130110B09107010196A11DB11D80930401909334
S11301200501A0930601B0930701BF91AF919F9180
S11301308F910F900FBE0F901F9018951F920F92E2
S11301400FB60F9211244F925F926F927F928F920B
S11301509F92AF92BF92CF92DF92EF92FF922F9332
S11301603F934F935F936F937F938F939F93AF933B
S1130170BF93EF93FF9386B590E0A0E0B0E0809347
S1130180540190935501A0935601B0935701809167
S1130190040190910501A0910601B091070180939B
S11301A00C0190930D01A0930E01B0930F014091A7
S11301B00C0150910D0160910E0170910F0180911D
S11301C0A8019091A901A091AA01B091AB0148178F
S11301D059076A077B07E9F480915401909155010E
S11301E0A0915601B09157014091300150913101D5
S11301F06091320170913301841B950BA60BB70BF0
S11302008093680190936901A0936A01B0936B0194
S11302104BC0E7B58090300190903101A09032013D
S1130220B0903301C0905401D0905501E090560134
S1130230F090570140910C0150910D0160910E0115
S113024070910F014090A8015090A9016090AA01FB
S11302507090AB01A7B541505109610971099A0128
S1130260AB012419350946095709B0E00E94770407
S11302704E2E512C612C712CA3019201281939099D
S11302804A095B09C20ED31EE41EF51EDC01CB0134
S11302908C0D9D1DAE1DBF1D809368019093690157
S11302A0A0936A01B0936B01609168017091690138
S11302B080916A0190916B010E947C0320E030E8F8
S11302C04BE154E40E940A049B01AC0160E074E237
S11302D084E798E40E94DB026093E4017093E501F3
S11302E08093E6019093E701809154019091550128
S11302F0A0915601B0915701809330019093310140
S1130300A0933201B093330180910C0190910D01BF
S1130310A0910E01B0910F018093A8019093A901BF
S1130320A093AA01B093AB01FF91EF91BF91AF915C
S11303309F918F917F916F915F914F913F912F91F9
S1130340FF90EF90DF90CF90BF90AF909F908F90F1
S11303507F906F905F904F900F900FBE0F901F9003
S113036018951F920F920FB60F9211240F900FBE83
S11303700F901F9018950E9422020E94530080E063
S113038091E00E9445020E9467020E94D2010E94ED
S1130390640017B81AB860E070E084E393E40E9444
S11303A00902FFCFE0E8F0E08081836A8083E1E81E
S11303B0F0E080818C608083E0EBF0E080818083DA
S11303C0E1EBF0E080818B60808322E02093700079
S11303D08FEF8093B30094B5926094BD95B59B6004
S11303E095BD20936E0087BD86BD84B9ECE0F2E034
S11303F0148215821682178210861186128613863D
S11304001486158616861786108A118A128A138A0C
S1130410089520E030E04CEF52E40E940A0420E00A
S113042030E044E353E40E94DB0220E030E040EF9C
S113043051E40E946F020E944D03709389006093FF
S1130440880008958091080190910901A0910A0102
S1130450B0910B01892F9A2FAB2FBB27A7FDBA951B
S11304608093C500809108018093C40088E1809343
S1130470C10086E08093C2000895E0ECF0E0908132
S113048095FFFDCF8093C6000895EF92FF920F93DE
S11304901F93CF93DF938C017C01C0E0D0E006C0B2
S11304A0F70181917F010E943D022196F80101909C
S11304B00020E9F73197E01BF10BCE17DF0780F33B
S11304C0DF91CF911F910F91FF90EF9008958DE0F0
S11304D00E943D028AE00E943D0208955058BB27C5
S11304E0AA270E9486020C94D0030E94C20338F00B
S11304F00E94C90320F039F49F3F19F426F40C94A8
S1130500BF030EF4E095E7FB0C94B903E92F0E94B6
S1130510E10358F3BA17620773078407950720F0BD
S113052079F4A6F50C9403040EF4E0950B2EBA2F7F
S1130530A02D0B01B90190010C01CA01A0011124E5
S1130540FF27591B99F0593F50F4503E68F11A1691
S1130550F040A22F232F342F4427585FF3CF469522
S113056037952795A795F0405395C9F77EF41F1644
S1130570BA0B620B730B840BBAF09150A1F0FF0F0E
S1130580BB1F661F771F881FC2F70EC0BA0F621FFA
S1130590731F841F48F4879577956795B795F795EA
S11305A09E3F08F0B0CF9395880F08F09927EE0F7F
S11305B09795879508950E94EF020C94D0030E94AA
S11305C0C90358F00E94C20340F029F45F3F29F0A8
S11305D00C94B90351110C9404040C94BF030E94AD
S11305E0E10368F39923B1F3552391F3951B550B5C
S11305F0BB27AA2762177307840738F09F5F5F4FF2
S1130600220F331F441FAA1FA9F335D00E2E3AF030
S1130610E0E832D091505040E695001CCAF72BD048
S1130620FE2F29D0660F771F881FBB1F2617370799
S11306304807AB07B0E809F0BB0B802DBF01FF27CB
S113064093585F4F3AF09E3F510578F00C94B903EC
S11306500C9404045F3FE4F3983ED4F386957795B5
S11306606795B795F7959F5FC9F7880F911D969584
S1130670879597F90895E1E0660F771F881FBB1FE0
S1130680621773078407BA0720F0621B730B840B8D
S1130690BA0BEE1F88F7E09508950E94E90388F0ED
S11306A09F5798F0B92F9927B751B0F0E1F0660F32
S11306B0771F881F991F1AF0BA95C9F714C0B13073
S11306C091F00E940304B1E008950C940304672F91
S11306D0782F8827B85F39F0B93FCCF386957795A2
S11306E06795B395D9F73EF490958095709561958B
S11306F07F4F8F4F9F4F0895E89409C097FB3EF4B6
S113070090958095709561957F4F8F4F9F4F99235A
S1130710A9F0F92F96E9BB279395F69587957795D8
S11307206795B795F111F8CFFAF4BB0F11F460FF98
S11307301BC06F5F7F4F8F4F9F4F16C0882311F0F0
S113074096E911C0772321F09EE8872F762F05C004
S1130750662371F096E8862F70E060E02AF09A959F
S1130760660F771F881FDAF7880F9695879597F994
S1130770089597F99F6780E870E060E008959FEF1F
S113078080EC089500240A94161617061806090624
S1130790089500240A9412161306140605060895F3
S11307A0092E0394000C11F4882352F0BB0F40F47B
S11307B0BF2B11F460FF04C06F5F7F4F8F4F9F4FBB
S11307C0089557FD9058440F551F59F05F3F71F03D
S11307D04795880F97FB991F61F09F3F79F08795A4
S11307E00895121613061406551FF2CF4695F1DF2D
S11307F008C0161617061806991FF1CF86957105BD
S1130800610508940895E894BB2766277727CB01F0
S113081097F908950E941D040C94D0030E94C2030A
S113082038F00E94C90320F0952311F00C94B90309
S11308300C94BF0311240C9404040E94E10370F38C
S1130840959FC1F3950F50E0551F629FF001729F71
S1130850BB27F00DB11D639FAA27F00DB11DAA1F80
S1130860649F6627B00DA11D661F829F2227B00DCD
S1130870A11D621F739FB00DA11D621F839FA00D58
S1130880611D221F749F3327A00D611D231F849FA8
S1130890600D211D822F762F6A2F11249F575040FF
S11308A09AF0F1F088234AF0EE0FFF1FBB1F661F7A
S11308B0771F881F91505040A9F79E3F510580F043
S11308C00C94B9030C9404045F3FE4F3983ED4F30E
S11308D0869577956795B795F795E7959F5FC1F7E7
S11308E0FE2B880F911D9695879597F908950E9480
S11308F08204A59F900DB49F900DA49F800D911D1F
S113090011240895A29FB001B39FC001A39F700D4D
S1130910811D1124911DB29F700D811D1124911D03
S10909200895F894FFCFD6
S107092678640000ED
S9030000FC
