S01F0000436F6E74726F6C6C6F206D6F746F726920284E616E6F292E7372656392
S11300000C9475000C94EE000C9492000C949200E5
S11300100C9492000C9492000C9492000C949F0007
S11300200C9492000C9492000C9492000C94920004
S11300300C9492000C9492000C94C9000C949200BD
S11300400C9492000C9492000C9492000C949200E4
S11300500C9492000C9492000C9492000C949200D4
S11300600C9492000C94920007634236B79BD8A775
S11300701A39685618AEBAAB558C1D3CB7CC5763C9
S1130080BD6DEDFD753EF6177231BF000000803F77
S113009008000000BE922449123EABAAAA2ABECD93
S11300A0CCCC4C3E00000080BEABAAAAAA3E000005
S11300B00000BF000000803F0000000000084178FD
S11300C0D3BB4387D1133D190E3CC3BD4282AD2B34
S11300D03E68EC8276BED98FE1A93E4C80EFFFBE2C
S11300E001C4FF7F3F000000000011241FBECFEFBA
S11300F0D8E0DEBFCDBF11E0A0E0B1E0EAE3F5E176
S113010002C005900D92A830B107D9F722E0A8E00B
S1130110B1E001C01D92AE34B207E1F70E940102C2
S11301200C949B0A0C9400005B9A8DB383608DBB86
S1130130E9E6F0E080818F608083789408951F92CF
S11301400F920FB60F9211242F933F934F935F9307
S11301506F937F938F939F93AF93BF93EF93FF938B
S113016081E090E00E94720290938900809388005D
S1130170FF91EF91BF91AF919F918F917F916F917B
S11301805F914F913F912F910F900FBE0F901F9051
S113019018951F920F920FB60F9211248F939F936D
S11301A0AF93BF938091080190910901A0910A0136
S11301B0B0910B010196A11DB11D8093080190938C
S11301C00901A0930A01B0930B01BF91AF919F91D4
S11301D08F910F900FBE0F901F9018951F920F9242
S11301E00FB60F9211244F925F926F927F928F926B
S11301F09F92AF92BF92CF92DF92EF92FF922F9392
S11302003F934F935F936F937F938F939F93AF939A
S1130210BF93EF93FF9386B590E0A0E0B0E08093A6
S1130220600190936101A0936201B0936301809196
S1130230080190910901A0910A01B0910B018093EA
S1130240100190931101A0931201B09313014091F6
S1130250100150911101609112017091130180916C
S1130260A0019091A101A091A201B091A30148170E
S113027059076A077B07E9F4809160019091610155
S1130280A0916201B091630140913801509139010C
S113029060913A0170913B01841B950BA60BB70B3F
S11302A08093740190937501A0937601B0937701C4
S11302B04BC0E7B58090380190903901A0903A0185
S11302C0B0903B01C0906001D0906101E090620168
S11302D0F09063014091100150911101609112015D
S11302E0709113014090A0015090A1016090A2016F
S11302F07090A301A7B541505109610971099A0190
S1130300AB012419350946095709B0E00E949E093A
S11303104E2E512C612C712CA301920128193909FC
S11303204A095B09C20ED31EE41EF51EDC01CB0193
S11303308C0D9D1DAE1DBF1D80937401909375019E
S1130340A0937601B0937701609174017091750167
S113035080917601909177010E94A10620E030E817
S11303604BE154E40E94BA079B01AC0160E074E2E3
S113037084E798E40E94F9056093E0017093E10139
S11303808093E2019093E301809160019091610177
S1130390A0916201B0916301809338019093390177
S11303A0A0933A01B0933B01809110019091110107
S11303B0A0911201B09113018093A0019093A10127
S11303C0A093A201B093A301FF91EF91BF91AF91CC
S11303D09F918F917F916F915F914F913F912F9159
S11303E0FF90EF90DF90CF90BF90AF909F908F9051
S11303F07F906F905F904F900F900FBE0F901F9063
S113040018950E946A0380E091E00E948D030E9487
S1130410AC040E943B020E94940017B81AB81092D0
S1130420F2011092F3011092F4011092F50110926E
S11304303401109235011092360110923701109256
S1130440BE011092BF011092C0011092C10189B186
S113045086B186B186B186B186B186B16091F2016A
S11304607091F3018091F4019091F5010E94B3041D
S11304700E94AC04ECCFE0E8F0E08081836A8083E2
S1130480E1E8F0E080818C608083E0EBF0E0808143
S11304908083E1EBF0E080818B60808322E0209315
S11304A070008FEF8093B30094B5926094BD95B5BE
S11304B09B6095BD20936E0087BD86BD84B9E0E145
S11304C0F2E0148215821682178210861186128633
S11304D013861486158616861786108A118A128A40
S11304E0138A08954F925F926F927F928F929F9298
S11304F0AF92BF92CF92DF92EF92FF920F931F932E
S1130500CF93DF93EC018C01000F111F000F111F1B
S1130510F801E05CFE4F6081718182819381F80172
S1130520E452FE4F20813181428153810E9487052C
S1130530980128533E4F7901D9016D937D938D9392
S11305409C9313976D917D918D919C91F801E05F3F
S1130550FD4F6F0180809180A280B3802FE632E14D
S113056043E05BE30E94BA07A50194010E94880559
S1130570D6016D937D938D939C931397F7016081BE
S1130580718182819381F801E857FE4F2081318186
S1130590428153810E9487052FE632E143E05BE309
S11305A00E94F905F801E05EFE4F60837183828347
S11305B09383D7016D917D918D919C91D601CD90BE
S11305C0DD90ED90FC9080809180A280B38020919A
S11305D0F2013091F3014091F4015091F5010E9430
S11305E0BA072B013C01209134013091350140912F
S11305F0360150913701C701B6010E94BA079B0129
S1130600AC01C301B2010E9488056B017C012091F9
S1130610BE013091BF014091C0015091C101C5019B
S1130620B4010E94BA079B01AC01C701B6010E9444
S113063088050E946B06FE01EE0FFF1FE650FE4F79
S1130640718360838081918199233CF4FE01EE0FD4
S1130650FF1FE650FE4F11821082FE01EE0FFF1FB6
S1130660E650FE4F80819181811594404CF0FE014B
S1130670EE0FFF1FE650FE4F8FEF93E091838083D0
S1130680CE01880F991F880F991FFC01E853FE4F74
S11306904081518162817381FC01E857FE4F4083A0
S11306A0518362837383CC0FDD1FC650DE4F888174
S11306B09981DF91CF911F910F91FF90EF90DF907F
S11306C0CF90BF90AF909F908F907F906F905F90EE
S11306D04F90089580910C0190910D01A0910E010D
S11306E0B0910F01892F9A2FAB2FBB27A7FDBA9585
S11306F08093C50080910C018093C40088E18093AD
S1130700C10086E08093C2000895E0ECF0E090819F
S113071095FFFDCF8093C6000895EF92FF920F934B
S11307201F93CF93DF938C017C01C0E0D0E006C01F
S1130730F70181917F010E9485032196F8010190C0
S11307400020E9F73197E01BF10BCE17DF0780F3A8
S1130750DF91CF911F910F91FF90EF9008952F9209
S11307603F924F925F926F927F928F929F92AF923D
S1130770BF92CF92DF92EF92FF920F931F93CF938A
S1130780DF93CDB7DEB7C954D1090FB6F894DEBFF5
S11307900FBECDBF222E332E042F22965FAF229799
S11307A0862E172F23968FAF239724969FAF2497D7
S11307B0A0E00E94800A0CF0A6C083E091E00E94B1
S11307C08D03222D332D402F22965FAD2297682D65
S11307D0712F23968FAD239724969FAD24970E9463
S11307E0390A222E332E042F22965FAF2297862EAB
S11307F0172F23968FAF239724969FAF2497A0E0BB
S11308000E94800A21F480E30E9485038BC0CE01FC
S113081001962C013E0191E2690E711CF2011192C4
S1130820E615F705E1F70F2EFFE19F2EF02D289630
S11308305FAE4EAE28972A967FAE6EAE2A97792C7D
S1130840502E912EE1E0F0E0EC0FFD1FE70DF11DBD
S11308502696FFAFEEAF26970F2EFAE0AF2EF02DBF
S1130860B12CC12CD12CE12CF12C00E010E0222D74
S1130870332D452D22965FAD2297682D792D239631
S11308808FAD239724969FAD24970E94A909205DDC
S11308902696EEADFFAD26972083222D332D452DD0
S11308A022965FAD2297682D792D23968FAD2397DD
S11308B024969FAD24970E94AB09222E332E542EEA
S11308C022965FAF2297862E972E23968FAF23977B
S11308D024969FAF24977A94A0E00E94800A09F09E
S11308E0B1CF28964EAC5FAC28972A966EAC7FACFD
S11308F02A97F20181912F0181110E9485034614E8
S11309005704B9F70FC022965FAD229723968FAD97
S1130910239724969FAD2497A0E00E94800A09F0B3
S113092076CF71CFC75BDF4F0FB6F894DEBF0FBE33
S1130930CDBFDF91CF911F910F91FF90EF90DF908A
S1130940CF90BF90AF909F908F907F906F905F906B
S11309504F903F902F9008958DE00E9485038AE088
S11309600E94850308954F925F926F927F928F92B7
S11309709F92AF92BF92CF92DF92EF92FF920F932A
S11309801F93CF93DF936B017C0120E030E0A9013A
S11309900E94F405882344F483E091E00E948D03CF
S11309A0F7FAF094F7F8F094C701B6010E946B06C9
S11309B02B013C014B015C01BB0C8808982C5401B1
S11309C0262F352D462D572D682D782D882D982DC1
S11309D00E94AF03C0E0D0E00BC020E030E040E272
S11309E051E4C701B6010E94BA076B017C0121964C
S11309F020E030E040E85FE3C701B6010E94E90669
S1130A0020E030E0A9010E94F4058111E6CFBE0187
S1130A100D2E000C880B990B0E94A3069B01AC01C0
S1130A2060E070E080E291E40E9427084B015C01E1
S1130A30C301B2010E94A306A50194010E94BA0752
S1130A400E946B060E94A3069B01AC01C701B6017C
S1130A500E9487056B017C010E946B064B015C01BF
S1130A6020E030E040E85FE3C701B6010E94B5072B
S1130A701816BCF400E010E020E030E040E251E45D
S1130A80C701B6010E94F9056B017C010F5F1F4F7E
S1130A9020E030E040E85FE30E94B507181664F3F5
S1130AA002C000E010E0C01BD10B85E091E00E9481
S1130AB08D031C161D0654F400E010E080E30E9430
S1130AC085030F5F1F4FC017D107C1F7750164017C
S1130AD0FF0CCC08DC2C7601282D392D4A2D5B2DFA
S1130AE06C2D7C2D8C2D9C2D0E94AF03DF91CF911A
S1130AF01F910F91FF90EF90DF90CF90BF90AF9038
S1130B009F908F907F906F905F904F900895505872
S1130B10BB27AA270E949F050C947B070E946D07A0
S1130B2038F00E94740720F039F49F3F19F426F43A
S1130B300C946A070EF4E095E7FB0C945607E92F32
S1130B400E948C0758F3BA17620773078407950746
S1130B5020F079F4A6F50C94AE070EF4E0950B2E74
S1130B60BA2FA02D0B01B90190010C01CA01A001FB
S1130B701124FF27591B99F0593F50F4503E68F156
S1130B801A16F040A22F232F342F4427585FF3CF97
S1130B90469537952795A795F0405395C9F77EF468
S1130BA01F16BA0B620B730B840BBAF09150A1F0B1
S1130BB0FF0FBB1F661F771F881FC2F70EC0BA0F37
S1130BC0621F731F841F48F4879577956795B795BF
S1130BD0F7959E3F08F0B0CF9395880F08F09927BA
S1130BE0EE0F9795879508950E94320708F481E0E7
S1130BF008950E940D060C947B070E94740758F018
S1130C000E946D0740F029F45F3F29F00C945607C9
S1130C1051110C94AF070C946A070E948C0768F377
S1130C209923B1F3552391F3951B550BBB27AA27A1
S1130C3062177307840738F09F5F5F4F220F331FDB
S1130C40441FAA1FA9F335D00E2E3AF0E0E832D0A3
S1130C5091505040E695001CCAF72BD0FE2F29D0A6
S1130C60660F771F881FBB1F261737074807AB0778
S1130C70B0E809F0BB0B802DBF01FF2793585F4FED
S1130C803AF09E3F510578F00C9456070C94AF0748
S1130C905F3FE4F3983ED4F3869577956795B795CF
S1130CA0F7959F5FC9F7880F911D9695879597F9DA
S1130CB00895E1E0660F771F881FBB1F6217730753
S1130CC08407BA0720F0621B730B840BBA0BEE1F68
S1130CD088F7E09508950E9472066894B1110C9407
S1130CE0AF0708950E94940788F09F5798F0B92F92
S1130CF09927B751B0F0E1F0660F771F881F991F4D
S1130D001AF0BA95C9F714C0B13091F00E94AE0739
S1130D10B1E008950C94AE07672F782F8827B85F49
S1130D2039F0B93FCCF3869577956795B395D9F7A4
S1130D303EF490958095709561957F4F8F4F9F4FAE
S1130D400895E89409C097FB3EF4909580957095BA
S1130D5061957F4F8F4F9F4F9923A9F0F92F96E903
S1130D60BB279395F695879577956795B795F11178
S1130D70F8CFFAF4BB0F11F460FF1BC06F5F7F4F15
S1130D808F4F9F4F16C0882311F096E911C0772327
S1130D9021F09EE8872F762F05C0662371F096E830
S1130DA0862F70E060E02AF09A95660F771F881FFF
S1130DB0DAF7880F9695879597F908950E946D073D
S1130DC020F019F00E94740750F40C946A070C94F4
S1130DD0AF07E92F0E948C0788F35523B1F3E7FB93
S1130DE06217730784079507A8F189F3E92FFF2792
S1130DF088232AF03197660F771F881FDAF7952F1B
S1130E005527442332F091505040220F331F441F82
S1130E10D2F7BB27E91BF50B621B730B840BB109DB
S1130E20B1F222F4620F731F841FB11D31972AF0AF
S1130E30660F771F881FBB1FEFCF9150504062F0A1
S1130E4041F0882332F0660F771F881F915050407D
S1130E50C1F793950C945C078695779567959F5F8A
S1130E60D9F7F7CF990F0008550FAA0BE0E8FEEF6A
S1130E7016161706E807F907C0F012161306E4075A
S1130E80F50798F0621B730B840B950B39F40A2653
S1130E9061F0232B242B252B21F408950A2609F431
S1130EA0A140A6958FEF811D811D089597F99F6735
S1130EB080E870E060E008959F3F31F0915020F4A5
S1130EC0879577956795B795880F911D9695879522
S1130ED097F908959FEF80EC089500240A9416165C
S1130EE0170618060906089500240A941216130614
S1130EF0140605060895092E0394000C11F48823A2
S1130F0052F0BB0F40F4BF2B11F460FF04C06F5FBD
S1130F107F4F8F4F9F4F089557FD9058440F551F93
S1130F2059F05F3F71F04795880F97FB991F61F067
S1130F309F3F79F087950895121613061406551FDE
S1130F40F2CF4695F1DF08C0161617061806991F4A
S1130F50F1CF86957105610508940895E894BB273F
S1130F6066277727CB0197F908950E94320708F482
S1130F708FEF08950E94CD070C947B070E946D07A4
S1130F8038F00E94740720F0952311F00C94560752
S1130F900C946A0711240C94AF070E948C0770F319
S1130FA0959FC1F3950F50E0551F629FF001729F0A
S1130FB0BB27F00DB11D639FAA27F00DB11DAA1F19
S1130FC0649F6627B00DA11D661F829F2227B00D66
S1130FD0A11D621F739FB00DA11D621F839FA00DF1
S1130FE0611D221F749F3327A00D611D231F849F41
S1130FF0600D211D822F762F6A2F11249F57504098
S11310009AF0F1F088234AF0EE0FFF1FBB1F661F12
S1131010771F881F91505040A9F79E3F510580F0DB
S11310200C9456070C94AF075F3FE4F3983ED4F357
S1131030869577956795B795F795E7959F5FC1F77F
S1131040FE2B880F911D9695879597F90895FA01BF
S1131050EE0FFF1F309621053105A1F161157105D1
S113106061F48038BFE39B0749F1689490388105A7
S113107061F08038BFEF9B0741F099234AF5FF3FA9
S1131080E1053105210519F1E8940894E795D901A2
S1131090AA2329F4AB2FBE2FF85FD0F310C0FF5F53
S11310A070F4A695E0F7F73950F019F0FF3A38F4E8
S11310B09F779F930DD00F9007FC9058089546F0AA
S11310C00C946A0760E070E080E89FE308954FE7BE
S11310D09F775F934F933F932F930E9422092F9101
S11310E03F914F915F910E94BA070C947F0829F4B5
S11310F016F00C9456070C94AE070C946A070E94E1
S11311009407A8F39638A0F707F80F92E8942BE316
S11311103AEA48EB5FE70E94D0070F920F920F92D2
S11311204DB75EB70F920E946A09E8E6F0E00E94AC
S1131130B1084F915F91EF91FF91E595EE1FFF1F6D
S113114049F0FE57E0684427EE0F441FFA95E1F793
S11311504195550B0E94E4080F9007FE0C94D808A3
S11311600895DF93CF931F930F93FF92EF92DF9233
S11311707B018C01689406C0DA2EEF010E94CD0732
S1131180FE01E894A5912591359145915591A6F3D9
S1131190EF010E949F05FE019701A801DA9469F707
S11311A0DF90EF90FF900F911F91CF91DF91089501
S11311B09B01AC0160E070E080E89FE30C94F905CA
S11311C00C9456070C945C070E949407D8F3992357
S11311D0C9F3940F511DA3F39150504094F059F06A
S11311E0882332F0660F771F881F91505040C1F753
S11311F09E3F51052CF7880F911D9695879597F979
S113120008955F3FACF0983E9CF0BB278695779598
S11312106795B79508F4B1609395C1F7BB0F58F77C
S113122011F460FFE8CF6F5F7F4F8F4F9F4FE3CF85
S11312300C94AF0716F00C945C070C946A0768943E
S11312400C9456070E949407A8F39923C1F3AEF3B4
S1131250DF93CF931F930F93FF92C92FDD2788232A
S11312602AF02197660F771F881FDAF720E030E015
S113127040E85FEB9FE3883920F0803E38F0219608
S11312808F770E948805E0E9F0E004C00E94880599
S1131290EDEBF0E00E94B1088B01BE01EC01FB2EE6
S11312A06F5771097595771F880B990B0E94A306D8
S11312B028E132E741E35FE30E94CD07AF2D9801B7
S11312C0AE01FF900F911F91CF91DF910E949F0576
S11312D00C947B07FA01DC01AA0FBB1F9B01AC0134
S11312E0BF5728F4222733274427507820C0B7510A
S11312F090F4AB2F0024469537952795011CA395B0
S1131300D2F3002071F0220F331F441FB395DAF398
S11313100ED00C94870561307105A0E88A07B946A0
S113132030F49B01AC0166277727882790783096A4
S113133021F0208331834283538308950E948C0AD1
S1131340A59F900DB49F900DA49F800D911D112415
S11313500895689401C0E894F92FF12B12F00C94CD
S1131360DD09A0E0B0E0E7EBF9E00C944F0A092EA8
S1131370059422F40E94390A112392F4F0E80F260E
S1131380FFEFE094F09400951095B094C094D0943D
S1131390A194BF0ACF0ADF0AEF0AFF0A0F0B1F0B43
S11313A00E94E80907FC0E94390ACDB7DEB7ECE0D9
S11313B00C946B0A689401C0E8948F929F92CF9327
S11313C0DF930E94E809DF91CF919F908F90089559
S11313D088249924F401E401B0E49F93AA279A1580
S11313E08B049C04ED05FE05CF05D007A10798F4F6
S11313F0AD2FDC2FCF2FFE2FE92D982C892E982F7F
S1131400872F762F652F542F432F322F2227B85042
S113141031F7BF9127C01B2EBF91BB27220F331F6B
S1131420441F551F661F771F881F991F881C991C0E
S1131430EE1FFF1FCC1FDD1FAA1FBB1F8A149B04B6
S1131440EC05FD05CE05DF05A007B10748F08A18B5
S11314509B08EC09FD09CE09DF09A00BB10B216043
S11314601A94E1F62EF49401AF01BE01CD01000CF3
S11314700895609570958095909530954095509518
S113148021953F4F4F4F5F4F6F4F7F4F8F4F9F4F70
S113149008952F923F924F925F926F927F928F9214
S11314A09F92AF92BF92CF92DF92EF92FF920F93EF
S11314B01F93CF93DF93CDB7DEB7CA1BDB0B0FB6F9
S11314C0F894DEBF0FBECDBF09942A8839884888B6
S11314D05F846E847D848C849B84AA84B984C8844C
S11314E0DF80EE80FD800C811B81AA81B981CE0F43
S11314F0D11D0FB6F894DEBF0FBECDBFED01089528
S11315000024A7FD00942A17300540055005600506
S11315107005800590050895A29FB001B39FC00196
S1131520A39F700D811D1124911DB29F700D811D0B
S10D15301124911D0895F894FFCFD3
S10B153A7864002D002E00006E
S9030000FC
