:100000000C9452000C94DC000C94EF010C946F00E3
:100010000C946F000C946F000C946F000C948D0086
:100020000C946F000C946F000C946F000C946F0094
:100030000C946F000C946F000C94B7000C946F003C
:100040000C946F000C946F000C946F000C946F0074
:100050000C946F000C946F000C946F000C946F0064
:100060000C946F000C946F004E414E494E49545908
:10007000494E46CDCCCC3D0AD7233C17B7D1387773
:10008000CC2B329595E6241FB14F0A000020410089
:1000900000C84200401C4620BCBE4CCA1B0E5AAED3
:1000A000C59D740011241FBECFEFD8E0DEBFCDBFC9
:1000B00011E0A0E0B1E0E0EAF3E102C005900D92AA
:1000C000AA30B107D9F722E0AAE0B1E001C01D9241
:1000D000AC34B207E1F70E9437020C94CE090C94BD
:1000E0000000EAE7F0E0808187608083ACE7B0E061
:1000F0008C9180648C93808180688083808180640F
:10010000808308955B9A8DB383608DBBE9E6F0E050
:1001100080818F608083789408951F920F920FB62C
:100120000F9211242F933F934F935F936F937F937D
:100130008F939F93AF93BF93EF93FF9381E090E0F2
:100140000E949F029093890080938800FF91EF9115
:10015000BF91AF919F918F917F916F915F914F91DF
:100160003F912F910F900FBE0F901F9018951F92E7
:100170000F920FB60F9211248F939F93AF93BF935B
:1001800080910A0190910B01A0910C01B0910D0199
:100190000196A11DB11D80930A0190930B01A093BC
:1001A0000C01B0930D01BF91AF919F918F910F9072
:1001B0000FBE0F901F9018951F920F920FB60F92BF
:1001C00011244F925F926F927F928F929F92AF9283
:1001D000BF92CF92DF92EF92FF922F933F934F9374
:1001E0005F936F937F938F939F93AF93BF93EF939F
:1001F000FF9386B590E0A0E0B0E08093600190931B
:100200006101A0936201B093630180910A01909112
:100210000B01A0910C01B0910D01809312019093FC
:100220001301A0931401B093150140911201509154
:10023000130160911401709115018091A0019091BA
:10024000A101A091A201B091A301481759076A0723
:100250007B07E9F48091600190916101A0916201B6
:10026000B0916301409138015091390160913A0198
:1002700070913B01841B950BA60BB70B8093740107
:1002800090937501A0937601B09377014BC0E7B5C9
:100290008090380190903901A0903A01B0903B01D4
:1002A000C0906001D0906101E0906201F090630124
:1002B0004091120150911301609114017091150148
:1002C0004090A0015090A1016090A2017090A30104
:1002D000A7B541505109610971099A01AB0124196F
:1002E000350946095709B0E00E945B074E2E512C94
:1002F000612C712CA3019201281939094A095B0963
:10030000C20ED31EE41EF51EDC01CB018C0D9D1D1B
:10031000AE1DBF1D8093740190937501A09376016B
:10032000B0937701609174017091750180917601AD
:10033000909177010E943C0620E030E84BE154E4C4
:100340000E94EE069B01AC0160E074E284E798E451
:100350000E9494056093DE017093DF018093E001B9
:100360009093E1018091600190916101A0916201FF
:10037000B09163018093380190933901A0933A01C1
:10038000B0933B018091120190911301A09114014F
:10039000B09115018093A0019093A101A093A201B7
:1003A000B093A301FF91EF91BF91AF919F918F9176
:1003B0007F916F915F914F913F912F91FF90EF90BF
:1003C000DF90CF90BF90AF909F908F907F906F9075
:1003D0005F904F900F900FBE0F901F9018951F9237
:1003E0000F920FB60F9211242F933F934F935F9369
:1003F0006F937F938F939F93AF93BF93CF93DF932D
:10040000EF93FF933091F1012091F001932F990F19
:10041000990B492F592F692F792F892F0E94EC03AF
:1004200080E091E00E94CA03809188009091890049
:10043000282F392F40E050E060E070E080E090E04D
:100440000E94EC030E94E904FF91EF91DF91CF91AC
:10045000BF91AF919F918F917F916F915F914F91DC
:100460003F912F910F900FBE0F901F9018950E94F3
:100470009F030E94710082E091E00E94CA030E94E3
:10048000E9040E9468020E94820017B81AB810920C
:10049000F1011092F0011092370110923601109282
:1004A000BF011092BE0180E090E0A0E8BFE380931E
:1004B000440190934501A0934601B09347010E94E7
:1004C000F0040E9406067093F1016093F001F7CFEB
:1004D000E0E8F0E08081836A8083E1E8F0E08081F9
:1004E0008C608083E0EBF0E080818083E1EBF0E0E2
:1004F00080818B60808322E0209370008FEF809357
:10050000B30094B5926094BD95B59B6095BD209362
:100510006E0087BD86BD84B9ECE0F2E014821582DE
:100520001682178210861186128613861486158607
:1005300016861786108A118A128A138A08954F9296
:100540005F926F927F928F929F92AF92BF92CF9263
:10055000DF92EF92FF920F931F93CF93DF93EC0103
:100560008C01000F111F000F111FF801E05CFE4FFE
:100570006081718182819381F801E652FE4F208172
:100580003181428153810E94220598012A533E4FB6
:100590007901D9016D937D938D939C9313976D9100
:1005A0007D918D919C91F801E45FFD4F6F018080FA
:1005B0009180A280B3802FE632E143E05BE30E94AA
:1005C000EE06A50194010E942305D6016D937D934B
:1005D0008D939C931397F701608171818281938140
:1005E000F801E857FE4F20813181428153810E94FA
:1005F00022052FE632E143E05BE30E949405F80117
:10060000EE5DFE4F6083718382839383D7014D90AB
:100610005D906D907C90D601CD90DD90ED90FC903A
:1006200080809180A280B3806091F0017091F1018F
:10063000072E000C880B990B0E943E06A301920125
:100640000E94EE062B013C0160913601709137014A
:10065000072E000C880B990B0E943E06A7019601FD
:100660000E94EE069B01AC01C301B2010E9423056A
:100670006B017C016091BE017091BF01072E000CDF
:10068000880B990B0E943E06A50194010E94EE067C
:100690009B01AC01C701B6010E9423050E9406061A
:1006A000FE01EE0FFF1FEA50FE4F718360838081D1
:1006B000918199233CF4FE01EE0FFF1FEA50FE4F9B
:1006C00011821082FE01EE0FFF1FEA50FE4F808163
:1006D0009181811594404CF0FE01EE0FFF1FEA500E
:1006E000FE4F8FEF93E091838083CE01880F991F97
:1006F000880F991FFC01EA53FE4F408151816281AE
:100700007381FC01E857FE4F4083518362837383FA
:10071000CC0FDD1FCA50DE4F88819981DF91CF91C8
:100720001F910F91FF90EF90DF90CF90BF90AF900F
:100730009F908F907F906F905F904F9008958091E1
:100740000E0190910F01A0911001B0911101892F1C
:100750009A2FAB2FBB27A7FDBA958093C500809138
:100760000E018093C40088E18093C10086E08093ED
:10077000C2000895E0ECF0E0908195FFFDCF8093FA
:10078000C6000895E0ECF0E080818823ECF78091CA
:10079000C6000895EF92FF920F931F93CF93DF93BC
:1007A0008C017C01C0E0D0E006C0F70181917F019F
:1007B0000E94BA032196F80101900020E9F73197D1
:1007C000E01BF10BCE17DF0780F3DF91CF911F9174
:1007D0000F91FF90EF9008952F923F924F925F926A
:1007E0006F927F928F929F92AF92BF92CF92DF9241
:1007F000EF92FF920F931F93CF93DF93CDB7DEB7A6
:10080000C954D1090FB6F894DEBF0FBECDBF222E5A
:10081000332E042F22965FAF2297862E172F239612
:100820008FAF239724969FAF2497A0E00E943D08A6
:100830000CF0A6C085E091E00E94CA03222D332D62
:10084000402F22965FAD2297682D712F23968FAD92
:10085000239724969FAD24970E94F607222E332ECD
:10086000042F22965FAF2297862E172F23968FAFE5
:10087000239724969FAF2497A0E00E943D0821F47F
:1008800080E30E94BA038BC0CE0101962C013E0189
:1008900091E2690E711CF2011192E615F705E1F77C
:1008A0000F2EFFE19F2EF02D28965FAE4EAE2897BB
:1008B0002A967FAE6EAE2A97792C502E912EE1E0CB
:1008C000F0E0EC0FFD1FE70DF11D2696FFAFEEAF38
:1008D00026970F2EFAE0AF2EF02DB12CC12CD12C83
:1008E000E12CF12C00E010E0222D332D452D229635
:1008F0005FAD2297682D792D23968FAD239724968F
:100900009FAD24970E946607205D2696EEADFFAD51
:1009100026972083222D332D452D22965FAD2297D9
:10092000682D792D23968FAD239724969FAD24971C
:100930000E946807222E332E542E22965FAF2297F4
:10094000862E972E23968FAF239724969FAF2497BA
:100950007A94A0E00E943D0809F0B1CF28964EACF1
:100960005FAC28972A966EAC7FAC2A97F2018191F2
:100970002F0181110E94BA0346145704B9F70FC022
:1009800022965FAD229723968FAD239724969FAD35
:100990002497A0E00E943D0809F076CF71CFC75B95
:1009A000DF4F0FB6F894DEBF0FBECDBFDF91CF9102
:1009B0001F910F91FF90EF90DF90CF90BF90AF907D
:1009C0009F908F907F906F905F904F903F902F906F
:1009D00008958DE00E94BA038AE00E94BA03089548
:1009E0000F931F93CF93DF93CDB7DEB7C054D109D8
:1009F0000FB6F894DEBF0FBECDBF8E010F5F1F4F45
:100A0000CE018196F8011192E817F907E1F70E94EB
:100A1000C203853639F0F80181938F010E94C20329
:100A20008536C9F7CE0101960E945808C05CDF4F99
:100A30000FB6F894DEBF0FBECDBFDF91CF911F91EF
:100A40000F9108955058BB27AA270E943A050C948D
:100A5000B4060E94A60638F00E94AD0620F039F4D4
:100A60009F3F19F426F40C94A3060EF4E095E7FBDF
:100A70000C949D06E92F0E94C50658F3BA17620729
:100A800073078407950720F079F4A6F50C94E70620
:100A90000EF4E0950B2EBA2FA02D0B01B901900199
:100AA0000C01CA01A0011124FF27591B99F0593FDD
:100AB00050F4503E68F11A16F040A22F232F342F25
:100AC0004427585FF3CF469537952795A795F04073
:100AD0005395C9F77EF41F16BA0B620B730B840B88
:100AE000BAF09150A1F0FF0FBB1F661F771F881F40
:100AF000C2F70EC0BA0F621F731F841F48F4879598
:100B000077956795B795F7959E3F08F0B0CF939589
:100B1000880F08F09927EE0F9795879508950E9402
:100B2000790608F481E008950E94A8050C94B406A3
:100B30000E94AD0658F00E94A60640F029F45F3FDF
:100B400029F00C949D0651110C94E8060C94A30610
:100B50000E94C50668F39923B1F3552391F3951BC1
:100B6000550BBB27AA2762177307840738F09F5FCE
:100B70005F4F220F331F441FAA1FA9F335D00E2E3B
:100B80003AF0E0E832D091505040E695001CCAF7A8
:100B90002BD0FE2F29D0660F771F881FBB1F26176B
:100BA00037074807AB07B0E809F0BB0B802DBF0142
:100BB000FF2793585F4F3AF09E3F510578F00C9411
:100BC0009D060C94E8065F3FE4F3983ED4F38695C7
:100BD00077956795B795F7959F5FC9F7880F911D32
:100BE0009695879597F90895E1E0660F771F881F1E
:100BF000BB1F621773078407BA0720F0621B730BD1
:100C0000840BBA0BEE1F88F7E09508950E940D063D
:100C10006894B1110C94E80608950E94CD0688F0FE
:100C20009F5798F0B92F9927B751B0F0E1F0660FB0
:100C3000771F881F991F1AF0BA95C9F714C0B130F1
:100C400091F00E94E706B1E008950C94E706672F43
:100C5000782F8827B85F39F0B93FCCF38695779520
:100C60006795B395D9F73EF4909580957095619509
:100C70007F4F8F4F9F4F0895E89409C097FB3EF434
:100C800090958095709561957F4F8F4F9F4F9923D9
:100C9000A9F0F92F96E9BB279395F6958795779557
:100CA0006795B795F111F8CFFAF4BB0F11F460FF17
:100CB0001BC06F5F7F4F8F4F9F4F16C0882311F06F
:100CC00096E911C0772321F09EE8872F762F05C083
:100CD000662371F096E8862F70E060E02AF09A951E
:100CE000660F771F881FDAF7880F9695879597F913
:100CF0000895990F0008550FAA0BE0E8FEEF1616AD
:100D00001706E807F907C0F012161306E407F507FF
:100D100098F0621B730B840B950B39F40A2661F073
:100D2000232B242B252B21F408950A2609F4A14016
:100D3000A6958FEF811D811D089597F99F6780E823
:100D400070E060E008959FEF80EC089500240A941D
:100D50001616170618060906089500240A94121696
:100D60001306140605060895092E0394000C11F4C9
:100D7000882352F0BB0F40F4BF2B11F460FF04C076
:100D80006F5F7F4F8F4F9F4F089557FD9058440FCF
:100D9000551F59F05F3F71F04795880F97FB991FDA
:100DA00061F09F3F79F08795089512161306140697
:100DB000551FF2CF4695F1DF08C016161706180624
:100DC000991FF1CF86957105610508940895E894FF
:100DD000BB2766277727CB0197F908950E94010763
:100DE0000C94B4060E94A60638F00E94AD0620F0CE
:100DF000952311F00C949D060C94A30611240C94D9
:100E0000E8060E94C50670F3959FC1F3950F50E068
:100E1000551F629FF001729FBB27F00DB11D639FAC
:100E2000AA27F00DB11DAA1F649F6627B00DA11D52
:100E3000661F829F2227B00DA11D621F739FB00DF8
:100E4000A11D621F839FA00D611D221F749F332768
:100E5000A00D611D231F849F600D211D822F762F01
:100E60006A2F11249F5750409AF0F1F088234AF0DE
:100E7000EE0FFF1FBB1F661F771F881F915050404A
:100E8000A9F79E3F510580F00C949D060C94E8064E
:100E90005F3FE4F3983ED4F3869577956795B795D1
:100EA000F795E7959F5FC1F7FE2B880F911D9695EB
:100EB000879597F908950E944908A59F900DB49FC2
:100EC000900DA49F800D911D11240895689401C078
:100ED000E894F92FF12B12F00C949A07A0E0B0E0FF
:100EE000E4E7F7E00C940C08092E059422F40E9424
:100EF000F607112392F4F0E80F26FFEFE094F09448
:100F000000951095B094C094D094A194BF0ACF0AD4
:100F1000DF0AEF0AFF0A0F0B1F0B0E94A50707FC51
:100F20000E94F607CDB7DEB7ECE00C942808689471
:100F300001C0E8948F929F92CF93DF930E94A50700
:100F4000DF91CF919F908F90089588249924F40188
:100F5000E401B0E49F93AA279A158B049C04ED0545
:100F6000FE05CF05D007A10798F4AD2FDC2FCF2FBA
:100F7000FE2FE92D982C892E982F872F762F652FFD
:100F8000542F432F322F2227B85031F7BF9127C05B
:100F90001B2EBF91BB27220F331F441F551F661FF7
:100FA000771F881F991F881C991CEE1FFF1FCC1FDD
:100FB000DD1FAA1FBB1F8A149B04EC05FD05CE058F
:100FC000DF05A007B10748F08A189B08EC09FD0966
:100FD000CE09DF09A00BB10B21601A94E1F62EF4C3
:100FE0009401AF01BE01CD01000C0895609570958C
:100FF0008095909530954095509521953F4F4F4F56
:101000005F4F6F4F7F4F8F4F9F4F08952F923F92AB
:101010004F925F926F927F928F929F92AF92BF9208
:10102000CF92DF92EF92FF920F931F93CF93DF93B4
:10103000CDB7DEB7CA1BDB0B0FB6F894DEBF0FBE11
:10104000CDBF09942A88398848885F846E847D845E
:101050008C849B84AA84B984C884DF80EE80FD8060
:101060000C811B81AA81B981CE0FD11D0FB6F894D6
:10107000DEBF0FBECDBFED0108950024A7FD009493
:101080002A1730054005500560057005800590055C
:101090000895A29FB001B39FC001A39F700D811D51
:1010A0001124911DB29F700D811D1124911D089571
:1010B000662777270C945C08A0E0B0E0E2E6F8E051
:1010C0000C940C08EC016B016115710519F0FB0122
:1010D000918380837E01FFEFEF1AFF0A0881802F42
:1010E00090E00E94AA09892B11F0E701F3CF0D329D
:1010F00039F47E0182E0E80EF11C098111E008C09C
:101100000B3229F47E0192E0E90EF11C098110E016
:10111000E701219743E050E060E770E0CE010E94D4
:10112000B309892BC1F4239645E050E06BE670E0EB
:10113000CE010E94B309892B09F42596C114D1046C
:1011400019F0F601D183C0831111F6C060E070E0A0
:1011500080E89FE7FAC043E050E068E670E0CE0127
:101160000E94B309892B59F4C114D10409F4E9C0D0
:10117000F2E0EF0EF11CF601F182E082E2C020E025
:1011800030E0A901C0E0D0E0F70180EDA82EA00E6C
:1011900089E08A1530F1912F9260B92E812F8870E5
:1011A00012FF04C0811124C0219622C08111219711
:1011B000A5E0B0E00E945B07DC01CB01880F991F1E
:1011C000AA1FBB1F9C01AD012A0D311D411D511DE0
:1011D000283989E93807480789E1580748F0166037
:1011E00006C09EEFA9120AC013FD40C01860B12EC0
:1011F0008FEFE81AF80A00811B2DC6CF802F8F7D54
:101200008534A1F580818D3211F4106106C08B32D6
:1012100021F0319661E070E004C08181329662E095
:1012200070E080538A3018F0E61BF70B1FC060E0B7
:1012300070E060389CE079075CF4DB01AA0FBB1F0B
:10124000AA0FBB1F6A0F7B1F660F771F680F711DE8
:101250003196DF0111978C9180538A3050F314FF3F
:1012600003C0719561957109C60FD71F11FF08C0A2
:10127000C114D10429F0CF010197F6019183808335
:10128000CA01B9010E943C06212F2370233019F0B6
:101290004B015C0106C04B015C01B7FAB094B7F892
:1012A000B09420E030E0A901C501B4010E948F058F
:1012B000882309F43EC0D7FF06C0D195C195D10956
:1012C00007E810E002C00FE910E06801F8E1CF1A6A
:1012D000D10890E2E92EF12CCE15DF0574F0F8016B
:1012E0002591359145915491C501B4010E94EE06B6
:1012F0004B015C01CE19DF09EFCF04501109F594C1
:10130000E7940C151D0541F78A2D880F8B2D881F3A
:101310008F3F49F020E030E0A901C501B4010E94EF
:101320008F05811106C082E290E090934B0280937A
:101330004A02C501B40109C060E070E080E89FEF97
:1013400004C060E070E080EC9FE7CDB7DEB7ECE072
:101350000C94280891110C94CB09803219F0895013
:101360008550C8F70895FB01DC014150504088F0DA
:101370008D9181341CF08B350CF4805E6591613465
:101380001CF06B350CF4605E861B611171F3990BD8
:101390000895881BFCCF992788270895F894FFCFDC
:0A13A00009007864002D002E000003
:00000001FF
