S01F0000436F6E74726F6C6C6F206D6F746F726920284E616E6F292E7372656392
S113000051C000000AC1000011C2000067C0000016
S113001065C0000063C0000061C00000B0C0000003
S11300205DC000005BC0000059C0000057C0000064
S113003055C0000053C00000CBC000004FC00000FA
S11300404DC000004BC00000FBC1000047C00000D1
S113005045C0000043C0000041C000003FC0000094
S11300603DC000003BC000004E414E494E4954592A
S1130070494E46CDCCCC3D0AD7233C17B7D138776F
S1130080CC2B329595E6241FB14F0A000020410085
S113009000C84200401C4620BCBE4CCA1B0E5AAECF
S11300A0C59D740011241FBECFEFD8E0DEBFCDBFC5
S11300B011E0A0E0B1E0E0E2F1E102C005900D92B0
S11300C0AC31B107D9F721E0ACE1B1E001C01D9238
S11300D0AD3DB207E1F772D20C948E0891CFEAE7F6
S11300E0F0E0808187608083ACE7B0E08C9180642D
S11300F08C9380818068808380818064808308956C
S113010022E030E0ACE7B0E0482F4770EAE7F0E0E7
S11301109C91907F9C93883020F49C91982B9C9385
S113012003C09C91942B9C939081906490839081C4
S113013096FDFDCF2150310959F7809178009091B7
S11301407900089580E0DCDF893522E0920734F4F9
S11301508331914034F08DE091E0089580E091E0A6
S1130160089587E091E008955B9A8DB383608DBB19
S1130170E9E6F0E080818F608083789408951F928F
S11301800F920FB60F9211242F933F934F935F93C7
S11301906F937F938F939F93AF93BF93EF93FF934B
S11301A080E090E044D29093890080938800FF918E
S11301B0EF91BF91AF919F918F917F916F915F91DB
S11301C04F913F912F910F900FBE0F901F90189554
S11301D01F920F920FB60F9211248F939F93AF9398
S11301E0BF9380911C0190911D01A0911E01B091BB
S11301F01F010196A11DB11D80931C0190931D0147
S1130200A0931E01B0931F01BF91AF919F918F9155
S11302100F900FBE0F901F9018951F920F920FB65C
S11302200F9211244F925F926F927F928F929F92BE
S1130230AF92BF92CF92DF92EF92FF922F933F93B0
S11302404F935F936F937F938F939F93AF93BF93DA
S1130250EF93FF9386B590E0A0E0B0E08093A50112
S11302609093A601A093A701B093A80180911C01CB
S113027090911D01A0911E01B0911F01E8E2F1E0EF
S113028080839183A283B38340815181628173818E
S11302908091D3019091D401A091D501B091D60160
S11302A0481759076A077B07E9F48091A5019091E3
S11302B0A601A091A701B091A8014091AD01509170
S11302C0AE016091AF017091B001841B950BA60B38
S11302D0B70B80939D0190939E01A0939F01B093CF
S11302E0A0014AC0E7B58090AD019090AE01A09006
S11302F0AF01B090B001C090A501D090A601E090EC
S1130300A701F090A8014091280150912901609122
S11303102A0170912B014090D3015090D401609038
S1130320D5017090D601A7B54150510961097109F1
S11303309A01AB012419350946095709B0E035D5AE
S11303404E2E512C612C712CA301920128193909CC
S11303504A095B09C20ED31EE41EF51EDC01CB0163
S11303608C0D9D1DAE1DBF1D80939D0190939E011C
S1130370A0939F01B093A00160919D0170919E0193
S113038080919F019091A001F7D320E030E84BE1E8
S113039054E4A8D49B01AC0160E074E284E798E4DF
S11303A052D36093BD017093BE018093BF019093BB
S11303B0C0018091A5019091A601A091A701B091DF
S11303C0A8018093AD019093AE01A093AF01B093C7
S11303D0B0018091280190912901A0912A01B09146
S11303E02B018093D3019093D401A093D501B093B2
S11303F0D601FF91EF91BF91AF919F918F917F9122
S11304006F915F914F913F912F91FF90EF90DF900B
S1130410CF90BF90AF909F908F907F906F905F90A0
S11304204F900F900FBE0F901F9018951F920F9230
S11304300FB60F9211240F900FBE0F901F901895B6
S11304401F920F920FB60F921124CF92DF92EF9268
S1130450FF922F933F934F935F936F937F938F9369
S11304609F93AF93BF93EF93FF938091C60085361C
S113047089F0E0913801F0913901E55AFE4F80830B
S113048080913801909139010196909339018093BC
S113049038017FC0E0913801F0913901E65AFE4FEE
S11304A0808180934601E0913801F0913901E65A48
S11304B0FE4F10828BE591E0C8D46B017C018091E2
S11304C04601803319F0813399F136C020E030E0E1
S11304D0A901C701B601B3D288233CF480E58BB9E6
S11304E0F7FAF094F7F8F09402C080EA8BB9EEE3DF
S11304F0F1E0C082D182E282F382C482D582E682B4
S1130500F78220E030E0A901C701B60198D2811139
S113051017C0EEE3F1E080E090E0AAE7B4EC80835A
S11305209183A283B38384839583A683B78308C00E
S113053009DEFAD11AD204C083E191E0F5D115D2D3
S1130540809138019091390180913801909139015D
S11305509923B4F0E0913801F0913901E55AFE4F46
S1130560108280913801909139010197909339015B
S1130570809338018091380190913901992354F77F
S113058080913801909139010196909339018093BB
S11305903801FF91EF91BF91AF919F918F917F911E
S11305A06F915F914F913F912F91FF90EF90DF906A
S11305B0CF900F900FBE0F901F9018958AD18FDDAA
S11305C088E191E0B1D1D1D103D0CEDD17B8FFCF0E
S11305D0E0E8F0E08081836A8083E1E8F0E08081F4
S11305E08C608083E0EBF0E080818083E1EBF0E0DD
S11305F080818B60808322E0209370008FEF809352
S1130600B30094B5926094BD95B59B6095BD20935D
S11306106E0087BD86BD90EF9AB984B91092CF0160
S11306201092D0011092D1011092D20108958F92AC
S11306309F92AF92BF92CF92DF92EF92FF920F936D
S11306401F93CF93DF93EC018C01000F111F000F58
S1130650111FF801E25CFE4F6081718182819381F8
S1130660F801E354FE4F208131814281538182D1CC
S1130670F801EB54FE4F608371838283938360811E
S113068071818281938105531E4FF801C080D1800E
S1130690E280F3802FE632E143E05BE323D3A7015A
S11306A0960169D1F80160837183828393836081A9
S11306B071818281938120E030E040E85FE30ED3D2
S11306C0181694F0F801608171818281938120E091
S11306D030E040E85FEBB3D188235CF0F80140815F
S11306E051816281738109C040E050E060E87FE39A
S11306F004C040E050E060E87FEBCE01880F991F12
S1130700880F991FFC01E553FE4F40835183628398
S11307107383FC01EB54FE4F60817181828193816C
S113072020E030E842E254E4DDD220E030E04AE761
S113073054E4D4D2181644F1FE01EE0FFF1FEE0F5D
S1130740FF1FEB54FE4F608171818281938120E011
S113075030E842E254E4C6D220E030E04AE754EC08
S11307606ED18823B4F0FE01EE0FFF1FEE0FFF1FC2
S1130770EB54FE4F608171818281938120E030E8E7
S113078042E254E4AFD209C060E070E08AE794E446
S113079004C060E070E08AE794EC8E01000F111F42
S11307A0000F111F9801255B3E4F7901F901608309
S11307B0718382839383F801EB54FE4F60817181CE
S11307C082819381F801ED5AFE4F2081318142816B
S11307D05381D0D02FE632E143E05BE334D1D8013A
S11307E0A05DBE4F6D937D938D939C931397F701FA
S11307F0C080D180E280F380F801E553FE4F608130
S11308007181828193818D909D90AD90BC9020E008
S113081030E04AE753E466D2A7019601ACD06B01FD
S11308207C012AE939E949E95EE3C501B4015AD2F8
S11308309B01AC01C701B6019ED06DD1FE01EE0F44
S1130840FF1FE953FE4F7183608380819181992357
S11308503CF4FE01EE0FFF1FE953FE4F118210829C
S1130860FE01EE0FFF1FE953FE4F80819181811538
S113087094404CF0FE01EE0FFF1FE953FE4F8FEF43
S113088093E091838083CE01880F991F880F991F6D
S1130890FC01EB54FE4F4081518162817381FC0164
S11308A0ED5AFE4F4083518362837383CC0FDD1F67
S11308B0C953DE4F88819981DF91CF911F910F91A8
S11308C0FF90EF90DF90CF90BF90AF909F908F906C
S11308D008958091200190912101A0912201B0916D
S11308E02301892F9A2FAB2FBB27A7FDBA9580939D
S11308F0C500809120018093C40088E98093C100E1
S113090086E08093C200EBE5F1E08BE791E0119281
S1130910E817F907E1F70895E0ECF0E0908195FF1E
S1130920FDCF8093C6000895EF92FF920F931F931B
S1130930CF93DF938C017C01C0E0D0E005C0F701C8
S113094081917F01E9DF2196F80101900020E9F708
S11309503197E01BF10BCE17DF0788F3DF91CF91BE
S11309601F910F91FF90EF9008958DE0D5DF8AE0FD
S1130970D3CF08955058BB27AA270ED075C166D18E
S113098030F06BD120F031F49F3F11F41EF45BC1C1
S11309900EF4E095E7FB51C1E92F77D180F3BA1744
S11309A0620773078407950718F071F49EF58FC1E9
S11309B00EF4E0950B2EBA2FA02D0B01B901900176
S11309C00C01CA01A0011124FF27591B99F0593FBA
S11309D050F4503E68F11A16F040A22F232F342F02
S11309E04427585FF3CF469537952795A795F04050
S11309F05395C9F77EF41F16BA0B620B730B840B65
S1130A00BAF09150A1F0FF0FBB1F661F771F881F1C
S1130A10C2F70EC0BA0F621F731F841F48F4879574
S1130A2077956795B795F7959E3F08F0B3CF939563
S1130A30880F08F09927EE0F979587950895D9D0D8
S1130A4008F481E008950CD00FC107D140F0FED026
S1130A5030F021F45F3F19F0F0C0511139C1F3C0F7
S1130A6014D198F39923C9F35523B1F3951B550B6E
S1130A70BB27AA2762177307840738F09F5F5F4F6D
S1130A80220F331F441FAA1FA9F333D00E2E3AF0AE
S1130A90E0E830D091505040E695001CCAF729D0C8
S1130AA0FE2F27D0660F771F881FBB1F2617370717
S1130AB04807AB07B0E809F0BB0B802DBF01FF2747
S1130AC093585F4F2AF09E3F510568F0B6C000C1AD
S1130AD05F3FECF3983EDCF3869577956795B79581
S1130AE0F7959F5FC9F7880F911D9695879597F99C
S1130AF00895E1E0660F771F881FBB1F6217730715
S1130B008407BA0720F0621B730B840BBA0BEE1F29
S1130B1088F7E095089504D06894B111D9C0089578
S1130B20BCD088F09F5790F0B92F9927B751A0F007
S1130B30D1F0660F771F881F991F1AF0BA95C9F76D
S1130B4012C0B13081F0C3D0B1E00895C0C0672FA6
S1130B50782F8827B85F39F0B93FCCF3869577951D
S1130B606795B395D9F73EF4909580957095619506
S1130B707F4F8F4F9F4F0895E89409C097FB3EF431
S1130B8090958095709561957F4F8F4F9F4F9923D6
S1130B90A9F0F92F96E9BB279395F6958795779554
S1130BA06795B795F111F8CFFAF4BB0F11F460FF14
S1130BB01BC06F5F7F4F8F4F9F4F16C0882311F06C
S1130BC096E911C0772321F09EE8872F762F05C080
S1130BD0662371F096E8862F70E060E02AF09A951B
S1130BE0660F771F881FDAF7880F9695879597F910
S1130BF00895990F0008550FAA0BE0E8FEEF1616AA
S1130C001706E807F907C0F012161306E407F507FC
S1130C1098F0621B730B840B950B39F40A2661F070
S1130C20232B242B252B21F408950A2609F4A14013
S1130C30A6958FEF811D811D089597F99F6780E820
S1130C4070E060E008959FEF80EC089500240A941A
S1130C501616170618060906089500240A94121693
S1130C601306140605060895092E0394000C11F4C6
S1130C70882352F0BB0F40F4BF2B11F460FF04C073
S1130C806F5F7F4F8F4F9F4F089557FD9058440FCC
S1130C90551F59F05F3F71F04795880F97FB991FD7
S1130CA061F09F3F79F08795089512161306140694
S1130CB0551FF2CF4695F1DF08C016161706180621
S1130CC0991FF1CF86957105610508940895E894FC
S1130CD0BB2766277727CB0197F908958ADF08F4A5
S1130CE08FEF08950BD0C0CFB1DF28F0B6DF18F036
S1130CF0952309F0A2CFA7CF1124EACFC6DFA0F332
S1130D00959FD1F3950F50E0551F629FF001729F9C
S1130D10BB27F00DB11D639FAA27F00DB11DAA1FBB
S1130D20649F6627B00DA11D661F829F2227B00D08
S1130D30A11D621F739FB00DA11D621F839FA00D93
S1130D40611D221F749F3327A00D611D231F849FE3
S1130D50600D211D822F762F6A2F11249F5750403A
S1130D608AF0E1F088234AF0EE0FFF1FBB1F661FD5
S1130D70771F881F91505040A9F79E3F510570F08E
S1130D805CCFA6CF5F3FECF3983EDCF38695779576
S1130D906795B795F795E7959F5FC1F7FE2B880F89
S1130DA0911D9695879597F9089540D0A59F900D2C
S1130DB0B49F900DA49F800D911D112408952F922E
S1130DC03F924F925F926F927F928F929F92AF92D7
S1130DD0BF92CF92DF92EF92FF920F931F93CF9324
S1130DE0DF93CDB7DEB7CA1BDB0B0FB6F894DEBFBB
S1130DF00FBECDBF09942A88398848885F846E84E1
S1130E007D848C849B84AA84B984C884DF80EE802A
S1130E10FD800C811B81AA81B981CE0FD11D0FB633
S1130E20F894DEBF0FBECDBFED010895A29FB001BF
S1130E30B39FC001A39F700D811D1124911DB29F0A
S1130E40700D811D1124911D08956627772700C018
S1130E50A0E0B0E0EDE2F7E0B8CFEC016B01611582
S1130E60710519F0FB01918380837E01FFEFEF1A76
S1130E70FF0A0881802F90E02ED1892B11F0E70121
S1130E80F4CF0D3239F47E0182E0E80EF11C0981C1
S1130E9011E008C00B3229F47E0192E0E90EF11C46
S1130EA0098110E0E701219743E050E060E770E03A
S1130EB0CE0119D1892BB9F4239645E050E06BE6B5
S1130EC070E0CE0110D1892B09F42596C114D10408
S1130ED019F0F601D183C0831111F0C060E070E015
S1130EE080E89FE7F4C043E050E068E670E0CE019C
S1130EF0FAD0892B59F4C114D10409F4E4C0F2E006
S1130F00EF0EF11CF601F182E082DDC020E030E05A
S1130F10A901C0E0D0E0F70180EDA82EA00E89E081
S1130F208A1528F1912F9260B92E812F887012FFB3
S1130F3004C0811123C0219621C081112197A5E00D
S1130F40B0E033DFDC01CB01880F991FAA1FBB1F60
S1130F509C01AD012A0D311D411D511D283989E91E
S1130F603807480789E1580748F0166006C09EEF25
S1130F70A9120AC013FD40C01860B12E8FEFE81A01
S1130F80F80A00811B2DC7CF802F8F7D8534A1F5F2
S1130F9080818D3211F4106106C08B3221F03196BC
S1130FA061E070E004C08181329662E070E08053B9
S1130FB08A3018F0E61BF70B1FC060E070E0603861
S1130FC09CE079075CF4DB01AA0FBB1FAA0FBB1FCF
S1130FD06A0F7B1F660F771F680F711D3196DF0143
S1130FE011978C9180538A3050F314FF03C071958C
S1130FF061957109C60FD71F11FF08C0C114D10430
S113100029F0CF010197F60191838083CA01B901C8
S1131010B3DD212F2370233019F04B015C0106C08E
S11310204B015C01B7FAB094B7F8B09420E030E01B
S1131030A901C501B40103DD882309F43CC0D7FF2D
S113104006C0D195C195D10907E810E002C00FE9A7
S113105010E06801F8E1CF1AD10890E2E92EF12CF2
S1131060CE15DF056CF0F801259135914591549129
S1131070C501B40137DE4B015C01CE19DF09F0CFA5
S113108004501109F594E7940C151D0549F78A2DB0
S1131090880F8B2D881F8F3F41F020E030E0A9019D
S11310A0C501B401CCDC811106C082E290E09093CA
S11310B0DC018093DB01C501B40109C060E070E08C
S11310C080E89FEF04C060E070E080EC9FE7CDB75C
S11310D0DEB7ECE096CE91111EC0803219F0895033
S11310E08550D0F70895FB01DC014150504088F051
S11310F08D9181341CF08B350CF4805E65916134E4
S11311001CF06B350CF4605E861B611171F3990B56
S11311100895881BFCCF992788270895F894FFCF5A
S113112073696C76657200626C61636B00776869E1
S10F11307465006369616F00786400005E
S9030000FC
