S01F0000436F6E74726F6C6C6F206D6F746F726920284E616E6F292E7372656392
S113000092C0000017C100001FC20000A8C0000079
S1130010A6C00000A4C00000A2C00000BDC0000033
S11300209EC000009CC000009AC0000098C0000060
S113003096C0000094C00000D8C0000090C000002A
S11300408EC000008CC0000009C2000088C00000FF
S113005086C0000084C0000082C0000080C0000090
S11300607EC000007CC0000007634236B79BD8A75F
S11300701A39685618AEBAAB558C1D3CB7CC5763C9
S1130080BD6DEDFD753EF6177231BF000000803F77
S113009008000000BE922449123EABAAAA2ABECD93
S11300A0CCCC4C3E00000080BEABAAAAAA3E000005
S11300B00000BF000000803F0000000000084178FD
S11300C0D3BB4387D1133D190E3CC3BD4282AD2B34
S11300D03E68EC8276BED98FE1A93E4C80EFFFBE2C
S11300E001C4FF7F3F00000000004E414E494E49CD
S11300F05459494E46CDCCCC3D0AD7233C17B7D1F1
S11301003877CC2B329595E6241FB14F0A00002096
S1130110410000C84200401C4620BCBE4CCA1B0E15
S11301205AAEC59D740011241FBECFEFD8E0DEBFC8
S1130130CDBF11E0A0E0B1E0E8E6FBE102C005902C
S11301400D92AC30B107D9F721E0ACE0B1E001C0C9
S11301501D92AA3FB207E1F7ABD10C94B20D50CF78
S1130160EAE7F0E0808187608083ACE7B0E08C91BF
S113017080648C93808180688083808180648083A4
S113018008955B9A8DB383608DBBE9E6F0E08081CE
S11301908F608083789408951F920F920FB60F9208
S11301A011242F933F934F935F936F937F938F9378
S11301B09F93AF93BF93EF93FF9380E090E05AD265
S11301C09093890080938800FF91EF91BF91AF9144
S11301D09F918F917F916F915F914F913F912F915B
S11301E00F900FBE0F901F9018951F920F920FB68D
S11301F00F9211248F939F93AF93BF9380910C011F
S113020090910D01A0910E01B0910F010196A11DD5
S1130210B11D80930C0190930D01A0930E01B09336
S11302200F01BF91AF919F918F910F900FBE0F90CF
S11302301F9018951F920F920FB60F9211244F9290
S11302405F926F927F928F929F92AF92BF92CF9262
S1130250DF92EF92FF922F933F934F935F936F93AD
S11302607F938F939F93AF93BF93EF93FF9386B541
S113027090E0A0E0B0E08093AE019093AF01A09332
S1130280B001B093B10180910C0190910D01A09146
S11302900E01B0910F01E0E2F1E080839183A2832B
S11302A0B38340815181628173818091F001909187
S11302B0F101A091F201B091F301481759076A07BF
S11302C07B07E9F48091AE019091AF01A091B00158
S11302D0B091B1014091B6015091B7016091B8015C
S11302E07091B901841B950BA60BB70B8093A601E3
S11302F09093A701A093A801B093A9014BC0E7B5BF
S11303008090B6019090B701A090B801B090B90167
S1130310C090AE01D090AF01E090B001F090B10177
S1130320409120015091210160912201709123019B
S11303304090F0015090F1016090F2017090F3014F
S1130340A7B541505109610971099A01AB012419FA
S1130350350946095709B0E00E94540B4E2E512C22
S1130360612C712CA3019201281939094A095B09EE
S1130370C20ED31EE41EF51EDC01CB018C0D9D1DA7
S1130380AE1DBF1D8093A6019093A701A093A80161
S1130390B093A9016091A6017091A7018091A80171
S11303A09091A901B5D620E030E84BE154E4C2D7DE
S11303B09B01AC0160E074E284E798E410D660939A
S11303C0CA017093CB018093CC019093CD018091AD
S11303D0AE019091AF01A091B001B091B1018093B1
S11303E0B6019093B701A093B801B093B90180917D
S11303F0200190912101A0912201B09123018093C9
S1130400F0019093F101A093F201B093F301FF91F5
S1130410EF91BF91AF919F918F917F916F915F9178
S11304204F913F912F91FF90EF90DF90CF90BF902D
S1130430AF909F908F907F906F905F904F900F90B0
S11304400FBE0F901F9018951F920F920FB60F9228
S113045011240F900FBE0F901F9018951F920F92AA
S11304600FB60F9211248F939F93EF93FF93809174
S1130470C600853689F0E0913001F0913101E45AEB
S1130480FE4F8083809130019091310101969093C9
S113049031018093300103C081E080933E01FF91DC
S11304A0EF919F918F910F900FBE0F901F90189511
S11304B010923E0128D354DE80E091E04FD362D401
S11304C0AAD05FDE17B8C6E3D1E00F2EC12CD12C21
S11304D0FAE7EF2EF4ECFF2EF02D10EA00E5809100
S11304E03E018823E1F3E0913001F0913101E55AB6
S11304F0FE4F808180933F01E0913001F091310102
S1130500E55AFE4F10828CE591E00E94490C4B01A4
S11305105C0180913F01813369F18233B9F1803309
S113052009F048C020E030E0A901C501B40153D569
S1130530882334F40BB9B7FAB094B7F8B09401C077
S11305401BB988829982AA82BB828C829D82AE82E8
S1130550BF8220E030E0A901C501B4013CD581117E
S11305602EC0C882D982EA82FB82CC82DD82EE82EE
S1130570FF8225C021E030E040E050E060E070E020
S113058080E090E00CD3FED3FDD319C080925001DB
S113059090925101A0925201B09253016091500186
S11305A0709151018091520190915301F0D3EAD39B
S11305B0E9D305C083E091E0D1D2E4D3E3D38091C1
S11305C03001909131018091300190913101992352
S11305D0B4F0E0913001F0913101E45AFE4F108201
S11305E08091300190913101019790933101809372
S11305F030018091300190913101992354F7809119
S11306003001909131010196909331018093300132
S113061010923E0164CFE0E8F0E08081836A808339
S1130620E1E8F0E080818C608083E0EBF0E08081A1
S11306308083E1EBF0E080818B60808322E0209373
S113064070008FEF8093B30094B5926094BD95B51C
S11306509B6095BD20936E0087BD86BD90EF9AB9CF
S113066084B91092E0011092E1011092E20110921B
S1130670E30108958F929F92AF92BF92CF92DF923F
S1130680EF92FF920F931F93CF93DF93EC0180912E
S1130690A4019091A501892B09F0C6C06091500175
S11306A070915101809152019091530115D2209182
S11306B0EC013091ED014091EE015091EF0127D40E
S11306C060934C0170934D0180934E0190934F01C0
S11306D060914C0170914D0180914E0190914F01B8
S11306E02091BE013091BF014091C0015091C101E0
S11306F00DD42FE632E143E05BE371D4609318013B
S11307007093190180931A0190931B016091500119
S113071070915101809152019091530120E030E099
S1130720A90104D618168CF580914C0190914D01C5
S1130730A0914E01B0914F01BC01CD0190582DEC18
S11307403CEC4CE45DE3F6D50CE911E0F80164837C
S11307507583868397836083718382839383609197
S11307604C0170914D0180914E0190914F012DECFF
S11307703CEC4CE45DE3DED5F80164837583868349
S11307809783608371838283938360915001709116
S11307905101809152019091530120E030E0A90170
S11307A01AD488238CF560914C0170914D0180918D
S11307B04E0190914F012DEC3CEC4CE45DE3BAD535
S11307C00CE911E0F8016483758386839783608361
S11307D071838283938360914C0170914D01809168
S11307E04E0190914F012DEC3CEC4CE45DE3A2D51D
S11307F0DC01CB01B058F80184839583A683B783C9
S113080080839183A283B38380914C0190914D01A5
S1130810A0914E01B0914F018093BE019093BF010E
S1130820A093C001B093C1018E01000F111F000FEE
S1130830111FF801EA5CFE4F60817181828193810E
S1130840F801E456FE4F20813181428153815FD308
S1130850F801EC51FE4F608371838283938360813E
S1130860718182819381F801E653FE4F20813181A9
S1130870428153814BD3F801EE53FE4F6083718361
S113088082839383608171818281938104521E4F9C
S1130890F801C080D180E280F3802FE632E143E0AA
S11308A05BE348D5A701960132D3F80160837183D5
S11308B082839383608171818281938120E030E01F
S11308C040E85FE333D5181694F0F8016081718134
S11308D08281938120E030E040E85FEB7CD3882381
S11308E05CF0F801408151816281738109C040E06C
S11308F050E060E87FE304C040E050E060E87FEB54
S1130900CE01880F991F880F991FFC01E452FE4FF6
S11309104083518362837383FC01EE53FE4F6081F5
S113092071818281938120E030E842E254E402D56F
S113093020E030E04AE754E4F9D4181644F1FE010B
S1130940EE0FFF1FEE0FFF1FEE53FE4F608171810C
S11309508281938120E030E842E254E4EBD420E049
S113096030E04AE754EC37D38823B4F0FE01EE0FAD
S1130970FF1FEE0FFF1FEE53FE4F608171818281D6
S1130980938120E030E842E254E4D4D409C060E02A
S113099070E08AE794E404C060E070E08AE794ECD5
S11309A08E01000F111F000F111F98012C5B3E4F89
S11309B07901F9016083718382839383F801EE5393
S11309C0FE4F6081718182819381F801EC5AFE4F60
S11309D0208131814281538199D22FE632E143E073
S11309E05BE3FDD2D801A85DBE4F6D937D938D93DB
S11309F09C931397F701C080D180E280F380F801C3
S1130A00E452FE4F60817181828193818D909D902B
S1130A10AD90BC9020E030E04AE753E48BD4A701CA
S1130A20960175D26B017C012AE939E949E95EE353
S1130A30C501B4017FD49B01AC01C701B60167D2E3
S1130A4036D3FE01EE0FFF1FEC52FE4F718360831D
S1130A508081918199233CF4FE01EE0FFF1FEC523B
S1130A60FE4F11821082FE01EE0FFF1FEC52FE4F6B
S1130A7080819181811594404CF0FE01EE0FFF1F9F
S1130A80EC52FE4F8FEF93E091838083CE01880F69
S1130A90991F880F991FFC01EE53FE4F408151812D
S1130AA062817381FC01EC5AFE4F4083518362835F
S1130AB07383CC0FDD1FCC52DE4F88819981DF9187
S1130AC0CF911F910F91FF90EF90DF90CF90BF9047
S1130AD0AF909F908F900895CF92DF92EF92FF9204
S1130AE06B017C0120E030E0A90175D2882324F455
S1130AF0F7FAF094F7F8F094C701B601FF90EF907D
S1130B00DF90CF9008958091100190911101A091F0
S1130B101201B0911301892F9A2FAB2FBB27A7FD88
S1130B20BA958093C500809110018093C40088E930
S1130B308093C10086E08093C200ECE5F1E08CE78D
S1130B4091E01192E817F907E1F70895E0ECF0E07D
S1130B50908195FFFDCF8093C6000895EF92FF9298
S1130B600F931F93CF93DF938C017C01C0E0D0E0FF
S1130B7005C0F70181917F01E9DF2196F801019019
S1130B800020E9F73197E01BF10BCE17DF0788F35C
S1130B90DF91CF911F910F91FF90EF9008952F92C5
S1130BA03F924F925F926F927F928F929F92AF92F9
S1130BB0BF92CF92DF92EF92FF920F931F93CF9346
S1130BC0DF93CDB7DEB7C954D1090FB6F894DEBFB1
S1130BD00FBECDBF222E332E042F22965FAF229755
S1130BE0862E172F23968FAF239724969FAF249793
S1130BF0A0E034D60CF09EC088E091E0AFDF222D57
S1130C00332D402F22965FAD2297682D712F2396A6
S1130C108FAD239724969FAD2497D9D5222E332EBA
S1130C20042F22965FAF2297862E172F23968FAF1D
S1130C30239724969FAF2497A0E010D619F480E35D
S1130C4085DF86C0CE0101962C013E0191E2690E3A
S1130C50711CF2011192E615F705E1F70F2EFFE181
S1130C609F2EF02D28965FAE4EAE28972A967FAE23
S1130C706EAE2A97792C502E912EE1E0F0E0EC0F25
S1130C80FD1FE70DF11D2696FFAFEEAF26970F2E41
S1130C90FAE0AF2EF02DB12CC12CD12CE12CF12C8B
S1130CA000E010E0222D332D452D22965FAD2297D2
S1130CB0682D792D23968FAD239724969FAD249785
S1130CC0FDD4205D2696EEADFFAD26972083222D20
S1130CD0332D452D22965FAD2297682D792D2396CD
S1130CE08FAD239724969FAD2497EAD4222E332EDA
S1130CF0542E22965FAF2297862E972E23968FAF7F
S1130D00239724969FAF24977A94A0E0A7D509F05F
S1130D10B4CF28964EAC5FAC28972A966EAC7FACC5
S1130D202A97F20181912F01811110DF4614570493
S1130D30C1F70EC022965FAD229723968FAD2397FD
S1130D4024969FAD2497A0E089D509F07BCF77CF77
S1130D50C75BDF4F0FB6F894DEBF0FBECDBFDF9188
S1130D60CF911F910F91FF90EF90DF90CF90BF90A4
S1130D70AF909F908F907F906F905F904F903F9037
S1130D802F9008958DE0E2DE8AE0E0CE08954F9240
S1130D905F926F927F928F929F92AF92BF92CF9207
S1130DA0DF92EF92FF920F931F93CF93DF936B0128
S1130DB07C0120E030E0A9010ED188233CF488E0D6
S1130DC091E0CCDEF7FAF094F7F8F094C701B6019D
S1130DD06ED12B013C014B015C01BB0C8808982CA3
S1130DE05401262F352D462D572D682D782D882D0D
S1130DF0982DD5DEC0E0D0E00AC020E030E040E22B
S1130E0051E4C701B60196D26B017C01219620E022
S1130E1030E040E85FE3C701B601BED120E030E036
S1130E20A901D9D08111E9CFBE010D2E000C880B88
S1130E30990B70D19B01AC0160E070E080E291E419
S1130E40DCD24B015C01C301B20164D1A501940160
S1130E5071D22DD15FD19B01AC01C701B60156D02F
S1130E606B017C0124D14B015C0120E030E040E8BF
S1130E705FE3C701B6015AD21816ACF400E010E0E3
S1130E8020E030E040E251E4C701B601A8D06B0194
S1130E907C010F5F1F4F20E030E040E85FE346D263
S1130EA0181674F302C000E010E0C01BD10B8AE0F6
S1130EB091E054DE1C161D064CF400E010E080E3C3
S1130EC045DE0F5F1F4FC017D107C9F775016401D5
S1130ED0FF0CCC08DC2C7601282D392D4A2D5B2DF6
S1130EE06C2D7C2D8C2D9C2D5ADEDF91CF911F9182
S1130EF00F91FF90EF90DF90CF90BF90AF909F90B5
S1130F008F907F906F905F904F9008955058BB27BB
S1130F10AA270ED0D1C1C2D130F0C7D120F031F40C
S1130F209F3F11F41EF4B7C10EF4E095E7FB9FC197
S1130F30E92FD3D180F3BA176207730784079507A3
S1130F4018F071F49EF5EBC10EF4E0950B2EBA2F58
S1130F50A02D0B01B90190010C01CA01A0011124BB
S1130F60FF27591B99F0593F50F4503E68F11A1667
S1130F70F040A22F232F342F4427585FF3CF4695F8
S1130F8037952795A795F0405395C9F77EF41F161A
S1130F90BA0B620B730B840BBAF09150A1F0FF0FE4
S1130FA0BB1F661F771F881FC2F70EC0BA0F621FD0
S1130FB0731F841F48F4879577956795B795F795C0
S1130FC09E3F08F0B3CF9395880F08F09927EE0F52
S1130FD097958795089527D108F481E008950CD05A
S1130FE06BC163D140F05AD130F021F45F3F19F066
S1130FF03EC1511195C14FC170D198F39923C9F3E2
S11310005523B1F3951B550BBB27AA27621773070A
S1131010840738F09F5F5F4F220F331F441FAA1FBE
S1131020A9F333D00E2E3AF0E0E830D0915050407E
S1131030E695001CCAF729D0FE2F27D0660F771F2C
S1131040881FBB1F261737074807AB07B0E809F00E
S1131050BB0B802DBF01FF2793585F4F2AF09E3FA3
S1131060510568F004C15CC15F3FECF3983EDCF3CA
S1131070869577956795B795F7959F5FC9F7880F1C
S1131080911D9695879597F90895E1E0660F771F6E
S1131090881FBB1F621773078407BA0720F0621BFF
S11310A0730B840BBA0BEE1F88F7E095089504D0F8
S11310B06894B11135C1089518D188F09F5790F004
S11310C0B92F9927B751A0F0D1F0660F771F881F69
S11310D0991F1AF0BA95C9F712C0B13081F01FD127
S11310E0B1E008951CC1672F782F8827B85F39F0C5
S11310F0B93FCCF3869577956795B395D9F73EF4C8
S113110090958095709561957F4F8F4F9F4F08956F
S1131110E89409C097FB3EF490958095709561958D
S11311207F4F8F4F9F4F9923A9F0F92F96E9BB2743
S11311309395F695879577956795B795F111F8CFBF
S1131140FAF4BB0F11F460FF1BC06F5F7F4F8F4F2A
S11311509F4F16C0882311F096E911C0772321F020
S11311609EE8872F762F05C0662371F096E8862FB8
S113117070E060E02AF09A95660F771F881FDAF70F
S1131180880F9695879597F9089588D018F011F0EF
S11311908CD038F480C0C4C0E92F9FD0B0F355235D
S11311A0C9F3E7FB6217730784079507A8F199F35E
S11311B0E92FFF2788232AF03197660F771F881FAE
S11311C0DAF7952F5527442332F091505040220FDF
S11311D0331F441FD2F7BB27E91BF50B621B730BAC
S11311E0840BB109C1F222F4620F731F841FB11D75
S11311F031972AF0660F771F881FBB1FEFCF9150DE
S113120050405AF041F0882332F0660F771F881F50
S113121091505040C1F7939530C086957795679566
S11312209F5FD9F7F8CF990F0008550FAA0BE0E894
S1131230FEEF16161706E807F907C0F01216130694
S1131240E407F50798F0621B730B840B950B39F4D4
S11312500A2661F0232B242B252B21F408950A263A
S113126009F4A140A6958FEF811D811D089597F97A
S11312709F6780E870E060E008959F3F31F09150EF
S113128020F4879577956795B795880F911D969566
S1131290879597F908959FEF80EC089500240A94A8
S11312A01616170618060906089500240A9412163D
S11312B01306140605060895092E0394000C11F470
S11312C0882352F0BB0F40F4BF2B11F460FF04C01D
S11312D06F5F7F4F8F4F9F4F089557FD9058440F76
S11312E0551F59F05F3F71F04795880F97FB991F81
S11312F061F09F3F79F0879508951216130614063E
S1131300551FF2CF4695F1DF08C0161617061806CA
S1131310991FF1CF86957105610508940895E894A5
S1131320BB2766277727CB0197F908957CDF08F45C
S11313308FEF08950BD0C0CFB1DF28F0B6DF18F0DF
S1131340952309F094CFA7CF1124EACFC6DFA0F3E9
S1131350959FD1F3950F50E0551F629FF001729F46
S1131360BB27F00DB11D639FAA27F00DB11DAA1F65
S1131370649F6627B00DA11D661F829F2227B00DB2
S1131380A11D621F739FB00DA11D621F839FA00D3D
S1131390611D221F749F3327A00D611D231F849F8D
S11313A0600D211D822F762F6A2F11249F575040E4
S11313B08AF0E1F088234AF0EE0FFF1FBB1F661F7F
S11313C0771F881F91505040A9F79E3F510570F038
S11313D04ECFA6CF5F3FECF3983EDCF3869577952E
S11313E06795B795F795E7959F5FC1F7FE2B880F33
S11313F0911D9695879597F90895FA01EE0FFF1FB1
S113140030962105310599F16115710561F4803833
S1131410BFE39B0749F168949038810561F08038F7
S1131420BFEF9B0741F0992342F5FF3FE1053105EA
S1131430210511F1E8940894E795D901AA2329F428
S1131440AB2FBE2FF85FD0F310C0FF5F70F4A695EA
S1131450E0F7F73950F019F0FF3A38F49F779F938B
S11314600CD00F9007FC905808953EF014CF60E024
S113147070E080E89FE308954FE79F775F934F9371
S11314803F932F939ED02F913F914F915F9152DFC5
S113149005C019F40EF0EBCE42CFFDCE26DFC8F323
S11314A09638C0F707F80F92E8942BE33AEA48EB32
S11314B05FE74EDF0F920F920F924DB75EB70F9218
S11314C0C0D0E8E6F0E016D04F915F91EF91FF9124
S11314D0E595EE1FFF1F49F0FE57E0684427EE0F25
S11314E0441FFA95E1F74195550B32D00F9007FE52
S11314F026C00895DF93CF931F930F93FF92EF922B
S1131500DF927B018C01689405C0DA2EEF011EDFA7
S1131510FE01E894A5912591359145915591AEF33D
S1131520EF0106DDFE019701A801DA9479F7DF9057
S1131530EF90FF900F911F91CF91DF9108959B0140
S1131540AC0160E070E080E89FE349CD90CE95CE99
S1131550CCDEE8F39923D9F3940F511DBBF39150DA
S1131560504094F059F0882332F0660F771F881F9B
S113157091505040C1F79E3F510544F7880F911D8B
S11315809695879597F908955F3FACF0983E9CF047
S1131590BB27869577956795B79508F4B1609395C1
S11315A0C1F7BB0F58F711F460FFE8CF6F5F7F4FAF
S11315B08F4F9F4FE3CFB4CE0EF05FCE6CCE6894C6
S11315C056CE93DEC8F39923D1F3C6F3DF93CF93BA
S11315D01F930F93FF92C92FDD2788232AF02197A9
S11315E0660F771F881FDAF720E030E040E85FEBF2
S11315F09FE3883920F0803E30F021968F7787DC96
S1131600E0E9F0E003C083DCEDEBF0E073DF8B0195
S1131610BE01EC01FB2E6F5771097595771F880B7E
S1131620990B78DD28E132E741E35FE38FDEAF2DEC
S11316309801AE01FF900F911F91CF91DF9178DC5B
S11316403BCEFA01DC01AA0FBB1F9B01AC01BF57C3
S113165028F422273327442750781FC0B75188F431
S1131660AB2F0024469537952795011CA395D2F3FB
S1131670002069F0220F331F441FB395DAF30DD015
S113168045CC61307105A0E88A07B94630F49B0166
S1131690AC016627772788279078309621F020833D
S11316A03183428353830895E5D0A59F900DB49F61
S11316B0900DA49F800D911D11240895689401C07C
S11316C0E894F92FF12B0AF027C0A0E0B0E0EAE695
S11316D0FBE093C0092E05941AF479D0112392F4F7
S11316E0F0E80F26FFEFE094F09400951095B09485
S11316F0C094D094A194BF0ACF0ADF0AEF0AFF0A6C
S11317000F0B1F0B13D007FC62D0CDB7DEB7ECE094
S113171090C0689401C0E8948F929F92CF93DF9316
S113172005D0DF91CF919F908F90089588249924BC
S1131730F401E401B0E49F93AA279A158B049C0456
S1131740ED05FE05CF05D007A10798F4AD2FDC2FDA
S1131750CF2FFE2FE92D982C892E982F872F762FA7
S1131760652F542F432F322F2227B85031F7BF91C2
S113177027C01B2EBF91BB27220F331F441F551FA9
S1131780661F771F881F991F881C991CEE1FFF1F57
S1131790CC1FDD1FAA1FBB1F8A149B04EC05FD058B
S11317A0CE05DF05A007B10748F08A189B08EC09AD
S11317B0FD09CE09DF09A00BB10B21601A94E1F6F3
S11317C02EF49401AF01BE01CD01000C0895609583
S11317D070958095909530954095509521953F4F03
S11317E04F4F5F4F6F4F7F4F8F4F9F4F08952F92F3
S11317F03F924F925F926F927F928F929F92AF929D
S1131800BF92CF92DF92EF92FF920F931F93CF93E9
S1131810DF93CDB7DEB7CA1BDB0B0FB6F894DEBF80
S11318200FBECDBF09942A88398848885F846E84A6
S11318307D848C849B84AA84B984C884DF80EE80F0
S1131840FD800C811B81AA81B981CE0FD11D0FB6F9
S1131850F894DEBF0FBECDBFED0108950024A7FDAF
S113186000942A1730054005500560057005800571
S113187090050895A29FB001B39FC001A39F700D6E
S1131880811D1124911DB29F700D811D1124911D84
S113189008956627772700C0A0E0B0E0E1E5FCE00A
S11318A0ACCFEC016B016115710519F0FB0191835B
S11318B080837E01FFEFEF1AFF0A0881802F90E0FA
S11318C02ED1892B11F0E701F4CF0D3239F47E01CA
S11318D082E0E80EF11C098111E008C00B3229F402
S11318E07E0192E0E90EF11C098110E0E7012197E5
S11318F043E050E062EF70E0CE0119D1892BB9F4D6
S1131900239645E050E06DEE70E0CE0110D1892BB6
S113191009F42596C114D10419F0F601D183C083CA
S11319201111F0C060E070E080E89FE7F4C043E08C
S113193050E06AEE70E0CE01FAD0892B59F4C1145C
S1131940D10409F4E4C0F2E0EF0EF11CF601F182D7
S1131950E082DDC020E030E0A901C0E0D0E0F70182
S113196080EDA82EA00E89E08A1528F1912F9260AF
S1131970B92E812F887012FF04C0811123C02196D3
S113198021C081112197A5E0B0E08EDEDC01CB01FE
S1131990880F991FAA1FBB1F9C01AD012A0D311D81
S11319A0411D511D283989E93807480789E158073D
S11319B048F0166006C09EEFA9120AC013FD40C08D
S11319C01860B12E8FEFE81AF80A00811B2DC7CFDB
S11319D0802F8F7D8534A1F580818D3211F41061C3
S11319E006C08B3221F0319661E070E004C0818141
S11319F0329662E070E080538A3018F0E61BF70BF1
S1131A001FC060E070E060389CE079075CF4DB01A3
S1131A10AA0FBB1FAA0FBB1F6A0F7B1F660F771F7E
S1131A20680F711D3196DF0111978C9180538A30B4
S1131A3050F314FF03C0719561957109C60FD71F48
S1131A4011FF08C0C114D10429F0CF010197F60198
S1131A5091838083CA01B9015BDB212F237023307A
S1131A6019F04B015C0106C04B015C01B7FAB0945C
S1131A70B7F8B09420E030E0A901C501B401ABDAB5
S1131A80882309F43CC0D7FF06C0D195C195D1097C
S1131A9009E011E002C001E211E06801F8E1CF1AA7
S1131AA0D10890E2E92EF12CCE15DF056CF0F80197
S1131AB02591359145915491C501B4013BDC4B010D
S1131AC05C01CE19DF09F0CF04501109F594E794B5
S1131AD00C151D0549F78A2D880F8B2D881F8F3F04
S1131AE041F020E030E0A901C501B40174DA8111AC
S1131AF006C082E290E09093F9018093F801C50159
S1131B00B40109C060E070E080E89FEF04C060E0C9
S1131B1070E080EC9FE7CDB7DEB7ECE08ACE9111A0
S1131B201EC0803219F089508550D0F70895FB010A
S1131B30DC014150504088F08D9181341CF08B358C
S1131B400CF4805E659161341CF06B350CF4605EBE
S1131B50861B611171F3990B0895881BFCCF99279B
S10B1B6088270895F894FFCFD3
S10F1B687864006369616F002D002E009A
S9030000FC
